{
	"tutorial2/DepositAndRefund.sol": {
		"depositAndRefund": {
			"abi": [
				{
					"anonymous": false,
					"inputs": [
						{
							"indexed": true,
							"internalType": "address",
							"name": "payee",
							"type": "address"
						},
						{
							"indexed": false,
							"internalType": "uint256",
							"name": "weiAmount",
							"type": "uint256"
						}
					],
					"name": "Deposited",
					"type": "event"
				},
				{
					"anonymous": false,
					"inputs": [
						{
							"indexed": true,
							"internalType": "address",
							"name": "payee",
							"type": "address"
						},
						{
							"indexed": false,
							"internalType": "uint256",
							"name": "weiAmount",
							"type": "uint256"
						}
					],
					"name": "Withdrawn",
					"type": "event"
				},
				{
					"inputs": [],
					"name": "deposit",
					"outputs": [],
					"stateMutability": "payable",
					"type": "function"
				},
				{
					"inputs": [
						{
							"internalType": "address",
							"name": "_party",
							"type": "address"
						}
					],
					"name": "getBalance",
					"outputs": [
						{
							"internalType": "uint256",
							"name": "",
							"type": "uint256"
						}
					],
					"stateMutability": "nonpayable",
					"type": "function"
				},
				{
					"inputs": [
						{
							"internalType": "uint256",
							"name": "amount",
							"type": "uint256"
						}
					],
					"name": "withdraw",
					"outputs": [],
					"stateMutability": "payable",
					"type": "function"
				}
			],
			"devdoc": {
				"kind": "dev",
				"methods": {},
				"version": 1
			},
			"evm": {
				"assembly": "    /* \"tutorial2/DepositAndRefund.sol\":70:870  contract depositAndRefund{... */\n  mstore(0x40, 0x80)\n  callvalue\n  dup1\n  iszero\n  tag_1\n  jumpi\n  0x00\n  dup1\n  revert\ntag_1:\n  pop\n  dataSize(sub_0)\n  dup1\n  dataOffset(sub_0)\n  0x00\n  codecopy\n  0x00\n  return\nstop\n\nsub_0: assembly {\n        /* \"tutorial2/DepositAndRefund.sol\":70:870  contract depositAndRefund{... */\n      mstore(0x40, 0x80)\n      jumpi(tag_1, lt(calldatasize, 0x04))\n      shr(0xe0, calldataload(0x00))\n      dup1\n      0x2e1a7d4d\n      eq\n      tag_2\n      jumpi\n      dup1\n      0xd0e30db0\n      eq\n      tag_3\n      jumpi\n      dup1\n      0xf8b2cb4f\n      eq\n      tag_4\n      jumpi\n    tag_1:\n      0x00\n      dup1\n      revert\n        /* \"tutorial2/DepositAndRefund.sol\":577:771  function withdraw(uint amount) public payable{... */\n    tag_2:\n      tag_5\n      0x04\n      dup1\n      calldatasize\n      sub\n      dup2\n      add\n      swap1\n      tag_6\n      swap2\n      swap1\n      tag_7\n      jump\t// in\n    tag_6:\n      tag_8\n      jump\t// in\n    tag_5:\n      stop\n        /* \"tutorial2/DepositAndRefund.sol\":434:571  function deposit() public payable{... */\n    tag_3:\n      tag_9\n      tag_10\n      jump\t// in\n    tag_9:\n      stop\n        /* \"tutorial2/DepositAndRefund.sol\":296:426  function getBalance(address _party) public returns(uint){... */\n    tag_4:\n      callvalue\n      dup1\n      iszero\n      tag_11\n      jumpi\n      0x00\n      dup1\n      revert\n    tag_11:\n      pop\n      tag_12\n      0x04\n      dup1\n      calldatasize\n      sub\n      dup2\n      add\n      swap1\n      tag_13\n      swap2\n      swap1\n      tag_14\n      jump\t// in\n    tag_13:\n      tag_15\n      jump\t// in\n    tag_12:\n      mload(0x40)\n      tag_16\n      swap2\n      swap1\n      tag_17\n      jump\t// in\n    tag_16:\n      mload(0x40)\n      dup1\n      swap2\n      sub\n      swap1\n      return\n        /* \"tutorial2/DepositAndRefund.sol\":577:771  function withdraw(uint amount) public payable{... */\n    tag_8:\n        /* \"tutorial2/DepositAndRefund.sol\":666:672  amount */\n      dup1\n        /* \"tutorial2/DepositAndRefund.sol\":640:662  getBalance(msg.sender) */\n      tag_19\n        /* \"tutorial2/DepositAndRefund.sol\":651:661  msg.sender */\n      caller\n        /* \"tutorial2/DepositAndRefund.sol\":640:650  getBalance */\n      tag_15\n        /* \"tutorial2/DepositAndRefund.sol\":640:662  getBalance(msg.sender) */\n      jump\t// in\n    tag_19:\n        /* \"tutorial2/DepositAndRefund.sol\":640:672  getBalance(msg.sender) >= amount */\n      lt\n      iszero\n        /* \"tutorial2/DepositAndRefund.sol\":632:673  require(getBalance(msg.sender) >= amount) */\n      tag_20\n      jumpi\n      0x00\n      dup1\n      revert\n    tag_20:\n        /* \"tutorial2/DepositAndRefund.sol\":713:719  amount */\n      dup1\n        /* \"tutorial2/DepositAndRefund.sol\":683:697  balanceMapping */\n      0x01\n        /* \"tutorial2/DepositAndRefund.sol\":683:709  balanceMapping[msg.sender] */\n      0x00\n        /* \"tutorial2/DepositAndRefund.sol\":698:708  msg.sender */\n      caller\n        /* \"tutorial2/DepositAndRefund.sol\":683:709  balanceMapping[msg.sender] */\n      0xffffffffffffffffffffffffffffffffffffffff\n      and\n      0xffffffffffffffffffffffffffffffffffffffff\n      and\n      dup2\n      mstore\n      0x20\n      add\n      swap1\n      dup2\n      mstore\n      0x20\n      add\n      0x00\n      keccak256\n      0x00\n        /* \"tutorial2/DepositAndRefund.sol\":683:719  balanceMapping[msg.sender] -= amount */\n      dup3\n      dup3\n      sload\n      tag_21\n      swap2\n      swap1\n      tag_22\n      jump\t// in\n    tag_21:\n      swap3\n      pop\n      pop\n      dup2\n      swap1\n      sstore\n      pop\n        /* \"tutorial2/DepositAndRefund.sol\":745:755  msg.sender */\n      caller\n        /* \"tutorial2/DepositAndRefund.sol\":735:764  Withdrawn(msg.sender, amount) */\n      0xffffffffffffffffffffffffffffffffffffffff\n      and\n      0x7084f5476618d8e60b11ef0d7d3f06914655adb8793e28ff7f018d4c76d505d5\n        /* \"tutorial2/DepositAndRefund.sol\":757:763  amount */\n      dup3\n        /* \"tutorial2/DepositAndRefund.sol\":735:764  Withdrawn(msg.sender, amount) */\n      mload(0x40)\n      tag_23\n      swap2\n      swap1\n      tag_17\n      jump\t// in\n    tag_23:\n      mload(0x40)\n      dup1\n      swap2\n      sub\n      swap1\n      log2\n        /* \"tutorial2/DepositAndRefund.sol\":577:771  function withdraw(uint amount) public payable{... */\n      pop\n      jump\t// out\n        /* \"tutorial2/DepositAndRefund.sol\":434:571  function deposit() public payable{... */\n    tag_10:\n        /* \"tutorial2/DepositAndRefund.sol\":507:516  msg.value */\n      callvalue\n        /* \"tutorial2/DepositAndRefund.sol\":477:491  balanceMapping */\n      0x01\n        /* \"tutorial2/DepositAndRefund.sol\":477:503  balanceMapping[msg.sender] */\n      0x00\n        /* \"tutorial2/DepositAndRefund.sol\":492:502  msg.sender */\n      caller\n        /* \"tutorial2/DepositAndRefund.sol\":477:503  balanceMapping[msg.sender] */\n      0xffffffffffffffffffffffffffffffffffffffff\n      and\n      0xffffffffffffffffffffffffffffffffffffffff\n      and\n      dup2\n      mstore\n      0x20\n      add\n      swap1\n      dup2\n      mstore\n      0x20\n      add\n      0x00\n      keccak256\n      0x00\n        /* \"tutorial2/DepositAndRefund.sol\":477:516  balanceMapping[msg.sender] += msg.value */\n      dup3\n      dup3\n      sload\n      tag_25\n      swap2\n      swap1\n      tag_26\n      jump\t// in\n    tag_25:\n      swap3\n      pop\n      pop\n      dup2\n      swap1\n      sstore\n      pop\n        /* \"tutorial2/DepositAndRefund.sol\":542:552  msg.sender */\n      caller\n        /* \"tutorial2/DepositAndRefund.sol\":532:564  Deposited(msg.sender, msg.value) */\n      0xffffffffffffffffffffffffffffffffffffffff\n      and\n      0x2da466a7b24304f47e87fa2e1e5a81b9831ce54fec19055ce277ca2f39ba42c4\n        /* \"tutorial2/DepositAndRefund.sol\":554:563  msg.value */\n      callvalue\n        /* \"tutorial2/DepositAndRefund.sol\":532:564  Deposited(msg.sender, msg.value) */\n      mload(0x40)\n      tag_27\n      swap2\n      swap1\n      tag_17\n      jump\t// in\n    tag_27:\n      mload(0x40)\n      dup1\n      swap2\n      sub\n      swap1\n      log2\n        /* \"tutorial2/DepositAndRefund.sol\":434:571  function deposit() public payable{... */\n      jump\t// out\n        /* \"tutorial2/DepositAndRefund.sol\":296:426  function getBalance(address _party) public returns(uint){... */\n    tag_15:\n        /* \"tutorial2/DepositAndRefund.sol\":347:351  uint */\n      0x00\n        /* \"tutorial2/DepositAndRefund.sol\":380:386  _party */\n      dup2\n        /* \"tutorial2/DepositAndRefund.sol\":372:395  address(_party).balance */\n      0xffffffffffffffffffffffffffffffffffffffff\n      and\n      balance\n        /* \"tutorial2/DepositAndRefund.sol\":362:369  balance */\n      0x00\n        /* \"tutorial2/DepositAndRefund.sol\":362:395  balance = address(_party).balance */\n      dup2\n      swap1\n      sstore\n      pop\n        /* \"tutorial2/DepositAndRefund.sol\":412:419  balance */\n      sload(0x00)\n        /* \"tutorial2/DepositAndRefund.sol\":405:419  return balance */\n      swap1\n      pop\n        /* \"tutorial2/DepositAndRefund.sol\":296:426  function getBalance(address _party) public returns(uint){... */\n      swap2\n      swap1\n      pop\n      jump\t// out\n        /* \"#utility.yul\":7:146   */\n    tag_30:\n        /* \"#utility.yul\":53:58   */\n      0x00\n        /* \"#utility.yul\":91:97   */\n      dup2\n        /* \"#utility.yul\":78:98   */\n      calldataload\n        /* \"#utility.yul\":69:98   */\n      swap1\n      pop\n        /* \"#utility.yul\":107:140   */\n      tag_32\n        /* \"#utility.yul\":134:139   */\n      dup2\n        /* \"#utility.yul\":107:140   */\n      tag_33\n      jump\t// in\n    tag_32:\n        /* \"#utility.yul\":7:146   */\n      swap3\n      swap2\n      pop\n      pop\n      jump\t// out\n        /* \"#utility.yul\":152:291   */\n    tag_34:\n        /* \"#utility.yul\":198:203   */\n      0x00\n        /* \"#utility.yul\":236:242   */\n      dup2\n        /* \"#utility.yul\":223:243   */\n      calldataload\n        /* \"#utility.yul\":214:243   */\n      swap1\n      pop\n        /* \"#utility.yul\":252:285   */\n      tag_36\n        /* \"#utility.yul\":279:284   */\n      dup2\n        /* \"#utility.yul\":252:285   */\n      tag_37\n      jump\t// in\n    tag_36:\n        /* \"#utility.yul\":152:291   */\n      swap3\n      swap2\n      pop\n      pop\n      jump\t// out\n        /* \"#utility.yul\":297:626   */\n    tag_14:\n        /* \"#utility.yul\":356:362   */\n      0x00\n        /* \"#utility.yul\":405:407   */\n      0x20\n        /* \"#utility.yul\":393:402   */\n      dup3\n        /* \"#utility.yul\":384:391   */\n      dup5\n        /* \"#utility.yul\":380:403   */\n      sub\n        /* \"#utility.yul\":376:408   */\n      slt\n        /* \"#utility.yul\":373:492   */\n      iszero\n      tag_39\n      jumpi\n        /* \"#utility.yul\":411:490   */\n      tag_40\n      tag_41\n      jump\t// in\n    tag_40:\n        /* \"#utility.yul\":373:492   */\n    tag_39:\n        /* \"#utility.yul\":531:532   */\n      0x00\n        /* \"#utility.yul\":556:609   */\n      tag_42\n        /* \"#utility.yul\":601:608   */\n      dup5\n        /* \"#utility.yul\":592:598   */\n      dup3\n        /* \"#utility.yul\":581:590   */\n      dup6\n        /* \"#utility.yul\":577:599   */\n      add\n        /* \"#utility.yul\":556:609   */\n      tag_30\n      jump\t// in\n    tag_42:\n        /* \"#utility.yul\":546:609   */\n      swap2\n      pop\n        /* \"#utility.yul\":502:619   */\n      pop\n        /* \"#utility.yul\":297:626   */\n      swap3\n      swap2\n      pop\n      pop\n      jump\t// out\n        /* \"#utility.yul\":632:961   */\n    tag_7:\n        /* \"#utility.yul\":691:697   */\n      0x00\n        /* \"#utility.yul\":740:742   */\n      0x20\n        /* \"#utility.yul\":728:737   */\n      dup3\n        /* \"#utility.yul\":719:726   */\n      dup5\n        /* \"#utility.yul\":715:738   */\n      sub\n        /* \"#utility.yul\":711:743   */\n      slt\n        /* \"#utility.yul\":708:827   */\n      iszero\n      tag_44\n      jumpi\n        /* \"#utility.yul\":746:825   */\n      tag_45\n      tag_41\n      jump\t// in\n    tag_45:\n        /* \"#utility.yul\":708:827   */\n    tag_44:\n        /* \"#utility.yul\":866:867   */\n      0x00\n        /* \"#utility.yul\":891:944   */\n      tag_46\n        /* \"#utility.yul\":936:943   */\n      dup5\n        /* \"#utility.yul\":927:933   */\n      dup3\n        /* \"#utility.yul\":916:925   */\n      dup6\n        /* \"#utility.yul\":912:934   */\n      add\n        /* \"#utility.yul\":891:944   */\n      tag_34\n      jump\t// in\n    tag_46:\n        /* \"#utility.yul\":881:944   */\n      swap2\n      pop\n        /* \"#utility.yul\":837:954   */\n      pop\n        /* \"#utility.yul\":632:961   */\n      swap3\n      swap2\n      pop\n      pop\n      jump\t// out\n        /* \"#utility.yul\":967:1085   */\n    tag_47:\n        /* \"#utility.yul\":1054:1078   */\n      tag_49\n        /* \"#utility.yul\":1072:1077   */\n      dup2\n        /* \"#utility.yul\":1054:1078   */\n      tag_50\n      jump\t// in\n    tag_49:\n        /* \"#utility.yul\":1049:1052   */\n      dup3\n        /* \"#utility.yul\":1042:1079   */\n      mstore\n        /* \"#utility.yul\":967:1085   */\n      pop\n      pop\n      jump\t// out\n        /* \"#utility.yul\":1091:1313   */\n    tag_17:\n        /* \"#utility.yul\":1184:1188   */\n      0x00\n        /* \"#utility.yul\":1222:1224   */\n      0x20\n        /* \"#utility.yul\":1211:1220   */\n      dup3\n        /* \"#utility.yul\":1207:1225   */\n      add\n        /* \"#utility.yul\":1199:1225   */\n      swap1\n      pop\n        /* \"#utility.yul\":1235:1306   */\n      tag_52\n        /* \"#utility.yul\":1303:1304   */\n      0x00\n        /* \"#utility.yul\":1292:1301   */\n      dup4\n        /* \"#utility.yul\":1288:1305   */\n      add\n        /* \"#utility.yul\":1279:1285   */\n      dup5\n        /* \"#utility.yul\":1235:1306   */\n      tag_47\n      jump\t// in\n    tag_52:\n        /* \"#utility.yul\":1091:1313   */\n      swap3\n      swap2\n      pop\n      pop\n      jump\t// out\n        /* \"#utility.yul\":1400:1705   */\n    tag_26:\n        /* \"#utility.yul\":1440:1443   */\n      0x00\n        /* \"#utility.yul\":1459:1479   */\n      tag_56\n        /* \"#utility.yul\":1477:1478   */\n      dup3\n        /* \"#utility.yul\":1459:1479   */\n      tag_50\n      jump\t// in\n    tag_56:\n        /* \"#utility.yul\":1454:1479   */\n      swap2\n      pop\n        /* \"#utility.yul\":1493:1513   */\n      tag_57\n        /* \"#utility.yul\":1511:1512   */\n      dup4\n        /* \"#utility.yul\":1493:1513   */\n      tag_50\n      jump\t// in\n    tag_57:\n        /* \"#utility.yul\":1488:1513   */\n      swap3\n      pop\n        /* \"#utility.yul\":1647:1648   */\n      dup3\n        /* \"#utility.yul\":1579:1645   */\n      0xffffffffffffffffffffffffffffffffffffffffffffffffffffffffffffffff\n        /* \"#utility.yul\":1575:1649   */\n      sub\n        /* \"#utility.yul\":1572:1573   */\n      dup3\n        /* \"#utility.yul\":1569:1650   */\n      gt\n        /* \"#utility.yul\":1566:1673   */\n      iszero\n      tag_58\n      jumpi\n        /* \"#utility.yul\":1653:1671   */\n      tag_59\n      tag_60\n      jump\t// in\n    tag_59:\n        /* \"#utility.yul\":1566:1673   */\n    tag_58:\n        /* \"#utility.yul\":1697:1698   */\n      dup3\n        /* \"#utility.yul\":1694:1695   */\n      dup3\n        /* \"#utility.yul\":1690:1699   */\n      add\n        /* \"#utility.yul\":1683:1699   */\n      swap1\n      pop\n        /* \"#utility.yul\":1400:1705   */\n      swap3\n      swap2\n      pop\n      pop\n      jump\t// out\n        /* \"#utility.yul\":1711:1902   */\n    tag_22:\n        /* \"#utility.yul\":1751:1755   */\n      0x00\n        /* \"#utility.yul\":1771:1791   */\n      tag_62\n        /* \"#utility.yul\":1789:1790   */\n      dup3\n        /* \"#utility.yul\":1771:1791   */\n      tag_50\n      jump\t// in\n    tag_62:\n        /* \"#utility.yul\":1766:1791   */\n      swap2\n      pop\n        /* \"#utility.yul\":1805:1825   */\n      tag_63\n        /* \"#utility.yul\":1823:1824   */\n      dup4\n        /* \"#utility.yul\":1805:1825   */\n      tag_50\n      jump\t// in\n    tag_63:\n        /* \"#utility.yul\":1800:1825   */\n      swap3\n      pop\n        /* \"#utility.yul\":1844:1845   */\n      dup3\n        /* \"#utility.yul\":1841:1842   */\n      dup3\n        /* \"#utility.yul\":1838:1846   */\n      lt\n        /* \"#utility.yul\":1835:1869   */\n      iszero\n      tag_64\n      jumpi\n        /* \"#utility.yul\":1849:1867   */\n      tag_65\n      tag_60\n      jump\t// in\n    tag_65:\n        /* \"#utility.yul\":1835:1869   */\n    tag_64:\n        /* \"#utility.yul\":1894:1895   */\n      dup3\n        /* \"#utility.yul\":1891:1892   */\n      dup3\n        /* \"#utility.yul\":1887:1896   */\n      sub\n        /* \"#utility.yul\":1879:1896   */\n      swap1\n      pop\n        /* \"#utility.yul\":1711:1902   */\n      swap3\n      swap2\n      pop\n      pop\n      jump\t// out\n        /* \"#utility.yul\":1908:2004   */\n    tag_66:\n        /* \"#utility.yul\":1945:1952   */\n      0x00\n        /* \"#utility.yul\":1974:1998   */\n      tag_68\n        /* \"#utility.yul\":1992:1997   */\n      dup3\n        /* \"#utility.yul\":1974:1998   */\n      tag_69\n      jump\t// in\n    tag_68:\n        /* \"#utility.yul\":1963:1998   */\n      swap1\n      pop\n        /* \"#utility.yul\":1908:2004   */\n      swap2\n      swap1\n      pop\n      jump\t// out\n        /* \"#utility.yul\":2010:2136   */\n    tag_69:\n        /* \"#utility.yul\":2047:2054   */\n      0x00\n        /* \"#utility.yul\":2087:2129   */\n      0xffffffffffffffffffffffffffffffffffffffff\n        /* \"#utility.yul\":2080:2085   */\n      dup3\n        /* \"#utility.yul\":2076:2130   */\n      and\n        /* \"#utility.yul\":2065:2130   */\n      swap1\n      pop\n        /* \"#utility.yul\":2010:2136   */\n      swap2\n      swap1\n      pop\n      jump\t// out\n        /* \"#utility.yul\":2142:2219   */\n    tag_50:\n        /* \"#utility.yul\":2179:2186   */\n      0x00\n        /* \"#utility.yul\":2208:2213   */\n      dup2\n        /* \"#utility.yul\":2197:2213   */\n      swap1\n      pop\n        /* \"#utility.yul\":2142:2219   */\n      swap2\n      swap1\n      pop\n      jump\t// out\n        /* \"#utility.yul\":2225:2405   */\n    tag_60:\n        /* \"#utility.yul\":2273:2350   */\n      0x4e487b7100000000000000000000000000000000000000000000000000000000\n        /* \"#utility.yul\":2270:2271   */\n      0x00\n        /* \"#utility.yul\":2263:2351   */\n      mstore\n        /* \"#utility.yul\":2370:2374   */\n      0x11\n        /* \"#utility.yul\":2367:2368   */\n      0x04\n        /* \"#utility.yul\":2360:2375   */\n      mstore\n        /* \"#utility.yul\":2394:2398   */\n      0x24\n        /* \"#utility.yul\":2391:2392   */\n      0x00\n        /* \"#utility.yul\":2384:2399   */\n      revert\n        /* \"#utility.yul\":2534:2651   */\n    tag_41:\n        /* \"#utility.yul\":2643:2644   */\n      0x00\n        /* \"#utility.yul\":2640:2641   */\n      dup1\n        /* \"#utility.yul\":2633:2645   */\n      revert\n        /* \"#utility.yul\":2657:2779   */\n    tag_33:\n        /* \"#utility.yul\":2730:2754   */\n      tag_77\n        /* \"#utility.yul\":2748:2753   */\n      dup2\n        /* \"#utility.yul\":2730:2754   */\n      tag_66\n      jump\t// in\n    tag_77:\n        /* \"#utility.yul\":2723:2728   */\n      dup2\n        /* \"#utility.yul\":2720:2755   */\n      eq\n        /* \"#utility.yul\":2710:2773   */\n      tag_78\n      jumpi\n        /* \"#utility.yul\":2769:2770   */\n      0x00\n        /* \"#utility.yul\":2766:2767   */\n      dup1\n        /* \"#utility.yul\":2759:2771   */\n      revert\n        /* \"#utility.yul\":2710:2773   */\n    tag_78:\n        /* \"#utility.yul\":2657:2779   */\n      pop\n      jump\t// out\n        /* \"#utility.yul\":2785:2907   */\n    tag_37:\n        /* \"#utility.yul\":2858:2882   */\n      tag_80\n        /* \"#utility.yul\":2876:2881   */\n      dup2\n        /* \"#utility.yul\":2858:2882   */\n      tag_50\n      jump\t// in\n    tag_80:\n        /* \"#utility.yul\":2851:2856   */\n      dup2\n        /* \"#utility.yul\":2848:2883   */\n      eq\n        /* \"#utility.yul\":2838:2901   */\n      tag_81\n      jumpi\n        /* \"#utility.yul\":2897:2898   */\n      0x00\n        /* \"#utility.yul\":2894:2895   */\n      dup1\n        /* \"#utility.yul\":2887:2899   */\n      revert\n        /* \"#utility.yul\":2838:2901   */\n    tag_81:\n        /* \"#utility.yul\":2785:2907   */\n      pop\n      jump\t// out\n\n    auxdata: 0xa26469706673582212201189b8a3d1be85113175a39d7e052b7efb20a7c592e401d36875ef5fa75fa13864736f6c63430008070033\n}\n",
				"bytecode": {
					"linkReferences": {},
					"object": "608060405234801561001057600080fd5b50610434806100206000396000f3fe6080604052600436106100345760003560e01c80632e1a7d4d14610039578063d0e30db014610055578063f8b2cb4f1461005f575b600080fd5b610053600480360381019061004e919061027f565b61009c565b005b61005d610158565b005b34801561006b57600080fd5b5061008660048036038101906100819190610252565b6101fe565b60405161009391906102bb565b60405180910390f35b806100a6336101fe565b10156100b157600080fd5b80600160003373ffffffffffffffffffffffffffffffffffffffff1673ffffffffffffffffffffffffffffffffffffffff1681526020019081526020016000206000828254610100919061032c565b925050819055503373ffffffffffffffffffffffffffffffffffffffff167f7084f5476618d8e60b11ef0d7d3f06914655adb8793e28ff7f018d4c76d505d58260405161014d91906102bb565b60405180910390a250565b34600160003373ffffffffffffffffffffffffffffffffffffffff1673ffffffffffffffffffffffffffffffffffffffff16815260200190815260200160002060008282546101a791906102d6565b925050819055503373ffffffffffffffffffffffffffffffffffffffff167f2da466a7b24304f47e87fa2e1e5a81b9831ce54fec19055ce277ca2f39ba42c4346040516101f491906102bb565b60405180910390a2565b60008173ffffffffffffffffffffffffffffffffffffffff16316000819055506000549050919050565b600081359050610237816103d0565b92915050565b60008135905061024c816103e7565b92915050565b600060208284031215610268576102676103cb565b5b600061027684828501610228565b91505092915050565b600060208284031215610295576102946103cb565b5b60006102a38482850161023d565b91505092915050565b6102b581610392565b82525050565b60006020820190506102d060008301846102ac565b92915050565b60006102e182610392565b91506102ec83610392565b9250827fffffffffffffffffffffffffffffffffffffffffffffffffffffffffffffffff038211156103215761032061039c565b5b828201905092915050565b600061033782610392565b915061034283610392565b9250828210156103555761035461039c565b5b828203905092915050565b600061036b82610372565b9050919050565b600073ffffffffffffffffffffffffffffffffffffffff82169050919050565b6000819050919050565b7f4e487b7100000000000000000000000000000000000000000000000000000000600052601160045260246000fd5b600080fd5b6103d981610360565b81146103e457600080fd5b50565b6103f081610392565b81146103fb57600080fd5b5056fea26469706673582212201189b8a3d1be85113175a39d7e052b7efb20a7c592e401d36875ef5fa75fa13864736f6c63430008070033",
					"opcodes": "PUSH1 0x80 PUSH1 0x40 MSTORE CALLVALUE DUP1 ISZERO PUSH2 0x10 JUMPI PUSH1 0x0 DUP1 REVERT JUMPDEST POP PUSH2 0x434 DUP1 PUSH2 0x20 PUSH1 0x0 CODECOPY PUSH1 0x0 RETURN INVALID PUSH1 0x80 PUSH1 0x40 MSTORE PUSH1 0x4 CALLDATASIZE LT PUSH2 0x34 JUMPI PUSH1 0x0 CALLDATALOAD PUSH1 0xE0 SHR DUP1 PUSH4 0x2E1A7D4D EQ PUSH2 0x39 JUMPI DUP1 PUSH4 0xD0E30DB0 EQ PUSH2 0x55 JUMPI DUP1 PUSH4 0xF8B2CB4F EQ PUSH2 0x5F JUMPI JUMPDEST PUSH1 0x0 DUP1 REVERT JUMPDEST PUSH2 0x53 PUSH1 0x4 DUP1 CALLDATASIZE SUB DUP2 ADD SWAP1 PUSH2 0x4E SWAP2 SWAP1 PUSH2 0x27F JUMP JUMPDEST PUSH2 0x9C JUMP JUMPDEST STOP JUMPDEST PUSH2 0x5D PUSH2 0x158 JUMP JUMPDEST STOP JUMPDEST CALLVALUE DUP1 ISZERO PUSH2 0x6B JUMPI PUSH1 0x0 DUP1 REVERT JUMPDEST POP PUSH2 0x86 PUSH1 0x4 DUP1 CALLDATASIZE SUB DUP2 ADD SWAP1 PUSH2 0x81 SWAP2 SWAP1 PUSH2 0x252 JUMP JUMPDEST PUSH2 0x1FE JUMP JUMPDEST PUSH1 0x40 MLOAD PUSH2 0x93 SWAP2 SWAP1 PUSH2 0x2BB JUMP JUMPDEST PUSH1 0x40 MLOAD DUP1 SWAP2 SUB SWAP1 RETURN JUMPDEST DUP1 PUSH2 0xA6 CALLER PUSH2 0x1FE JUMP JUMPDEST LT ISZERO PUSH2 0xB1 JUMPI PUSH1 0x0 DUP1 REVERT JUMPDEST DUP1 PUSH1 0x1 PUSH1 0x0 CALLER PUSH20 0xFFFFFFFFFFFFFFFFFFFFFFFFFFFFFFFFFFFFFFFF AND PUSH20 0xFFFFFFFFFFFFFFFFFFFFFFFFFFFFFFFFFFFFFFFF AND DUP2 MSTORE PUSH1 0x20 ADD SWAP1 DUP2 MSTORE PUSH1 0x20 ADD PUSH1 0x0 KECCAK256 PUSH1 0x0 DUP3 DUP3 SLOAD PUSH2 0x100 SWAP2 SWAP1 PUSH2 0x32C JUMP JUMPDEST SWAP3 POP POP DUP2 SWAP1 SSTORE POP CALLER PUSH20 0xFFFFFFFFFFFFFFFFFFFFFFFFFFFFFFFFFFFFFFFF AND PUSH32 0x7084F5476618D8E60B11EF0D7D3F06914655ADB8793E28FF7F018D4C76D505D5 DUP3 PUSH1 0x40 MLOAD PUSH2 0x14D SWAP2 SWAP1 PUSH2 0x2BB JUMP JUMPDEST PUSH1 0x40 MLOAD DUP1 SWAP2 SUB SWAP1 LOG2 POP JUMP JUMPDEST CALLVALUE PUSH1 0x1 PUSH1 0x0 CALLER PUSH20 0xFFFFFFFFFFFFFFFFFFFFFFFFFFFFFFFFFFFFFFFF AND PUSH20 0xFFFFFFFFFFFFFFFFFFFFFFFFFFFFFFFFFFFFFFFF AND DUP2 MSTORE PUSH1 0x20 ADD SWAP1 DUP2 MSTORE PUSH1 0x20 ADD PUSH1 0x0 KECCAK256 PUSH1 0x0 DUP3 DUP3 SLOAD PUSH2 0x1A7 SWAP2 SWAP1 PUSH2 0x2D6 JUMP JUMPDEST SWAP3 POP POP DUP2 SWAP1 SSTORE POP CALLER PUSH20 0xFFFFFFFFFFFFFFFFFFFFFFFFFFFFFFFFFFFFFFFF AND PUSH32 0x2DA466A7B24304F47E87FA2E1E5A81B9831CE54FEC19055CE277CA2F39BA42C4 CALLVALUE PUSH1 0x40 MLOAD PUSH2 0x1F4 SWAP2 SWAP1 PUSH2 0x2BB JUMP JUMPDEST PUSH1 0x40 MLOAD DUP1 SWAP2 SUB SWAP1 LOG2 JUMP JUMPDEST PUSH1 0x0 DUP2 PUSH20 0xFFFFFFFFFFFFFFFFFFFFFFFFFFFFFFFFFFFFFFFF AND BALANCE PUSH1 0x0 DUP2 SWAP1 SSTORE POP PUSH1 0x0 SLOAD SWAP1 POP SWAP2 SWAP1 POP JUMP JUMPDEST PUSH1 0x0 DUP2 CALLDATALOAD SWAP1 POP PUSH2 0x237 DUP2 PUSH2 0x3D0 JUMP JUMPDEST SWAP3 SWAP2 POP POP JUMP JUMPDEST PUSH1 0x0 DUP2 CALLDATALOAD SWAP1 POP PUSH2 0x24C DUP2 PUSH2 0x3E7 JUMP JUMPDEST SWAP3 SWAP2 POP POP JUMP JUMPDEST PUSH1 0x0 PUSH1 0x20 DUP3 DUP5 SUB SLT ISZERO PUSH2 0x268 JUMPI PUSH2 0x267 PUSH2 0x3CB JUMP JUMPDEST JUMPDEST PUSH1 0x0 PUSH2 0x276 DUP5 DUP3 DUP6 ADD PUSH2 0x228 JUMP JUMPDEST SWAP2 POP POP SWAP3 SWAP2 POP POP JUMP JUMPDEST PUSH1 0x0 PUSH1 0x20 DUP3 DUP5 SUB SLT ISZERO PUSH2 0x295 JUMPI PUSH2 0x294 PUSH2 0x3CB JUMP JUMPDEST JUMPDEST PUSH1 0x0 PUSH2 0x2A3 DUP5 DUP3 DUP6 ADD PUSH2 0x23D JUMP JUMPDEST SWAP2 POP POP SWAP3 SWAP2 POP POP JUMP JUMPDEST PUSH2 0x2B5 DUP2 PUSH2 0x392 JUMP JUMPDEST DUP3 MSTORE POP POP JUMP JUMPDEST PUSH1 0x0 PUSH1 0x20 DUP3 ADD SWAP1 POP PUSH2 0x2D0 PUSH1 0x0 DUP4 ADD DUP5 PUSH2 0x2AC JUMP JUMPDEST SWAP3 SWAP2 POP POP JUMP JUMPDEST PUSH1 0x0 PUSH2 0x2E1 DUP3 PUSH2 0x392 JUMP JUMPDEST SWAP2 POP PUSH2 0x2EC DUP4 PUSH2 0x392 JUMP JUMPDEST SWAP3 POP DUP3 PUSH32 0xFFFFFFFFFFFFFFFFFFFFFFFFFFFFFFFFFFFFFFFFFFFFFFFFFFFFFFFFFFFFFFFF SUB DUP3 GT ISZERO PUSH2 0x321 JUMPI PUSH2 0x320 PUSH2 0x39C JUMP JUMPDEST JUMPDEST DUP3 DUP3 ADD SWAP1 POP SWAP3 SWAP2 POP POP JUMP JUMPDEST PUSH1 0x0 PUSH2 0x337 DUP3 PUSH2 0x392 JUMP JUMPDEST SWAP2 POP PUSH2 0x342 DUP4 PUSH2 0x392 JUMP JUMPDEST SWAP3 POP DUP3 DUP3 LT ISZERO PUSH2 0x355 JUMPI PUSH2 0x354 PUSH2 0x39C JUMP JUMPDEST JUMPDEST DUP3 DUP3 SUB SWAP1 POP SWAP3 SWAP2 POP POP JUMP JUMPDEST PUSH1 0x0 PUSH2 0x36B DUP3 PUSH2 0x372 JUMP JUMPDEST SWAP1 POP SWAP2 SWAP1 POP JUMP JUMPDEST PUSH1 0x0 PUSH20 0xFFFFFFFFFFFFFFFFFFFFFFFFFFFFFFFFFFFFFFFF DUP3 AND SWAP1 POP SWAP2 SWAP1 POP JUMP JUMPDEST PUSH1 0x0 DUP2 SWAP1 POP SWAP2 SWAP1 POP JUMP JUMPDEST PUSH32 0x4E487B7100000000000000000000000000000000000000000000000000000000 PUSH1 0x0 MSTORE PUSH1 0x11 PUSH1 0x4 MSTORE PUSH1 0x24 PUSH1 0x0 REVERT JUMPDEST PUSH1 0x0 DUP1 REVERT JUMPDEST PUSH2 0x3D9 DUP2 PUSH2 0x360 JUMP JUMPDEST DUP2 EQ PUSH2 0x3E4 JUMPI PUSH1 0x0 DUP1 REVERT JUMPDEST POP JUMP JUMPDEST PUSH2 0x3F0 DUP2 PUSH2 0x392 JUMP JUMPDEST DUP2 EQ PUSH2 0x3FB JUMPI PUSH1 0x0 DUP1 REVERT JUMPDEST POP JUMP INVALID LOG2 PUSH5 0x6970667358 0x22 SLT KECCAK256 GT DUP10 0xB8 LOG3 0xD1 0xBE DUP6 GT BALANCE PUSH22 0xA39D7E052B7EFB20A7C592E401D36875EF5FA75FA138 PUSH5 0x736F6C6343 STOP ADDMOD SMOD STOP CALLER "
				},
				"gasEstimates": {
					"creation": {
						"codeDepositCost": "215200",
						"executionCost": "257",
						"totalCost": "215457"
					},
					"external": {
						"deposit()": "infinite",
						"getBalance(address)": "27493",
						"withdraw(uint256)": "infinite"
					}
				},
				"methodIdentifiers": {
					"deposit()": "d0e30db0",
					"getBalance(address)": "f8b2cb4f",
					"withdraw(uint256)": "2e1a7d4d"
				}
			},
			"userdoc": {
				"kind": "user",
				"methods": {},
				"version": 1
			}
		}
	}
}