{
	"tutorial2/DepositAndRefund.sol": {
		"depositAndRefund": {
			"abi": [
				{
					"inputs": [
						{
							"internalType": "uint256",
							"name": "amount",
							"type": "uint256"
						}
					],
					"name": "deposit",
					"outputs": [],
					"stateMutability": "nonpayable",
					"type": "function"
				},
				{
					"inputs": [
						{
							"internalType": "address",
							"name": "_party",
							"type": "address"
						}
					],
					"name": "getBalance",
					"outputs": [
						{
							"internalType": "uint256",
							"name": "",
							"type": "uint256"
						}
					],
					"stateMutability": "nonpayable",
					"type": "function"
				}
			],
			"devdoc": {
				"kind": "dev",
				"methods": {},
				"version": 1
			},
			"evm": {
				"assembly": "    /* \"tutorial2/DepositAndRefund.sol\":70:398  contract depositAndRefund{... */\n  mstore(0x40, 0x80)\n  callvalue\n  dup1\n  iszero\n  tag_1\n  jumpi\n  0x00\n  dup1\n  revert\ntag_1:\n  pop\n  dataSize(sub_0)\n  dup1\n  dataOffset(sub_0)\n  0x00\n  codecopy\n  0x00\n  return\nstop\n\nsub_0: assembly {\n        /* \"tutorial2/DepositAndRefund.sol\":70:398  contract depositAndRefund{... */\n      mstore(0x40, 0x80)\n      callvalue\n      dup1\n      iszero\n      tag_1\n      jumpi\n      0x00\n      dup1\n      revert\n    tag_1:\n      pop\n      jumpi(tag_2, lt(calldatasize, 0x04))\n      shr(0xe0, calldataload(0x00))\n      dup1\n      0xb6b55f25\n      eq\n      tag_3\n      jumpi\n      dup1\n      0xf8b2cb4f\n      eq\n      tag_4\n      jumpi\n    tag_2:\n      0x00\n      dup1\n      revert\n        /* \"tutorial2/DepositAndRefund.sol\":307:396  function deposit(uint amount) public{... */\n    tag_3:\n      tag_5\n      0x04\n      dup1\n      calldatasize\n      sub\n      dup2\n      add\n      swap1\n      tag_6\n      swap2\n      swap1\n      tag_7\n      jump\t// in\n    tag_6:\n      tag_8\n      jump\t// in\n    tag_5:\n      stop\n        /* \"tutorial2/DepositAndRefund.sol\":170:300  function getBalance(address _party) public returns(uint){... */\n    tag_4:\n      tag_9\n      0x04\n      dup1\n      calldatasize\n      sub\n      dup2\n      add\n      swap1\n      tag_10\n      swap2\n      swap1\n      tag_11\n      jump\t// in\n    tag_10:\n      tag_12\n      jump\t// in\n    tag_9:\n      mload(0x40)\n      tag_13\n      swap2\n      swap1\n      tag_14\n      jump\t// in\n    tag_13:\n      mload(0x40)\n      dup1\n      swap2\n      sub\n      swap1\n      return\n        /* \"tutorial2/DepositAndRefund.sol\":307:396  function deposit(uint amount) public{... */\n    tag_8:\n        /* \"tutorial2/DepositAndRefund.sol\":383:389  amount */\n      dup1\n        /* \"tutorial2/DepositAndRefund.sol\":353:367  balanceMapping */\n      0x01\n        /* \"tutorial2/DepositAndRefund.sol\":353:379  balanceMapping[msg.sender] */\n      0x00\n        /* \"tutorial2/DepositAndRefund.sol\":368:378  msg.sender */\n      caller\n        /* \"tutorial2/DepositAndRefund.sol\":353:379  balanceMapping[msg.sender] */\n      0xffffffffffffffffffffffffffffffffffffffff\n      and\n      0xffffffffffffffffffffffffffffffffffffffff\n      and\n      dup2\n      mstore\n      0x20\n      add\n      swap1\n      dup2\n      mstore\n      0x20\n      add\n      0x00\n      keccak256\n      0x00\n        /* \"tutorial2/DepositAndRefund.sol\":353:389  balanceMapping[msg.sender] += amount */\n      dup3\n      dup3\n      sload\n      tag_16\n      swap2\n      swap1\n      tag_17\n      jump\t// in\n    tag_16:\n      swap3\n      pop\n      pop\n      dup2\n      swap1\n      sstore\n      pop\n        /* \"tutorial2/DepositAndRefund.sol\":307:396  function deposit(uint amount) public{... */\n      pop\n      jump\t// out\n        /* \"tutorial2/DepositAndRefund.sol\":170:300  function getBalance(address _party) public returns(uint){... */\n    tag_12:\n        /* \"tutorial2/DepositAndRefund.sol\":221:225  uint */\n      0x00\n        /* \"tutorial2/DepositAndRefund.sol\":254:260  _party */\n      dup2\n        /* \"tutorial2/DepositAndRefund.sol\":246:269  address(_party).balance */\n      0xffffffffffffffffffffffffffffffffffffffff\n      and\n      balance\n        /* \"tutorial2/DepositAndRefund.sol\":236:243  balance */\n      0x00\n        /* \"tutorial2/DepositAndRefund.sol\":236:269  balance = address(_party).balance */\n      dup2\n      swap1\n      sstore\n      pop\n        /* \"tutorial2/DepositAndRefund.sol\":286:293  balance */\n      sload(0x00)\n        /* \"tutorial2/DepositAndRefund.sol\":279:293  return balance */\n      swap1\n      pop\n        /* \"tutorial2/DepositAndRefund.sol\":170:300  function getBalance(address _party) public returns(uint){... */\n      swap2\n      swap1\n      pop\n      jump\t// out\n        /* \"#utility.yul\":7:146   */\n    tag_20:\n        /* \"#utility.yul\":53:58   */\n      0x00\n        /* \"#utility.yul\":91:97   */\n      dup2\n        /* \"#utility.yul\":78:98   */\n      calldataload\n        /* \"#utility.yul\":69:98   */\n      swap1\n      pop\n        /* \"#utility.yul\":107:140   */\n      tag_22\n        /* \"#utility.yul\":134:139   */\n      dup2\n        /* \"#utility.yul\":107:140   */\n      tag_23\n      jump\t// in\n    tag_22:\n        /* \"#utility.yul\":7:146   */\n      swap3\n      swap2\n      pop\n      pop\n      jump\t// out\n        /* \"#utility.yul\":152:291   */\n    tag_24:\n        /* \"#utility.yul\":198:203   */\n      0x00\n        /* \"#utility.yul\":236:242   */\n      dup2\n        /* \"#utility.yul\":223:243   */\n      calldataload\n        /* \"#utility.yul\":214:243   */\n      swap1\n      pop\n        /* \"#utility.yul\":252:285   */\n      tag_26\n        /* \"#utility.yul\":279:284   */\n      dup2\n        /* \"#utility.yul\":252:285   */\n      tag_27\n      jump\t// in\n    tag_26:\n        /* \"#utility.yul\":152:291   */\n      swap3\n      swap2\n      pop\n      pop\n      jump\t// out\n        /* \"#utility.yul\":297:626   */\n    tag_11:\n        /* \"#utility.yul\":356:362   */\n      0x00\n        /* \"#utility.yul\":405:407   */\n      0x20\n        /* \"#utility.yul\":393:402   */\n      dup3\n        /* \"#utility.yul\":384:391   */\n      dup5\n        /* \"#utility.yul\":380:403   */\n      sub\n        /* \"#utility.yul\":376:408   */\n      slt\n        /* \"#utility.yul\":373:492   */\n      iszero\n      tag_29\n      jumpi\n        /* \"#utility.yul\":411:490   */\n      tag_30\n      tag_31\n      jump\t// in\n    tag_30:\n        /* \"#utility.yul\":373:492   */\n    tag_29:\n        /* \"#utility.yul\":531:532   */\n      0x00\n        /* \"#utility.yul\":556:609   */\n      tag_32\n        /* \"#utility.yul\":601:608   */\n      dup5\n        /* \"#utility.yul\":592:598   */\n      dup3\n        /* \"#utility.yul\":581:590   */\n      dup6\n        /* \"#utility.yul\":577:599   */\n      add\n        /* \"#utility.yul\":556:609   */\n      tag_20\n      jump\t// in\n    tag_32:\n        /* \"#utility.yul\":546:609   */\n      swap2\n      pop\n        /* \"#utility.yul\":502:619   */\n      pop\n        /* \"#utility.yul\":297:626   */\n      swap3\n      swap2\n      pop\n      pop\n      jump\t// out\n        /* \"#utility.yul\":632:961   */\n    tag_7:\n        /* \"#utility.yul\":691:697   */\n      0x00\n        /* \"#utility.yul\":740:742   */\n      0x20\n        /* \"#utility.yul\":728:737   */\n      dup3\n        /* \"#utility.yul\":719:726   */\n      dup5\n        /* \"#utility.yul\":715:738   */\n      sub\n        /* \"#utility.yul\":711:743   */\n      slt\n        /* \"#utility.yul\":708:827   */\n      iszero\n      tag_34\n      jumpi\n        /* \"#utility.yul\":746:825   */\n      tag_35\n      tag_31\n      jump\t// in\n    tag_35:\n        /* \"#utility.yul\":708:827   */\n    tag_34:\n        /* \"#utility.yul\":866:867   */\n      0x00\n        /* \"#utility.yul\":891:944   */\n      tag_36\n        /* \"#utility.yul\":936:943   */\n      dup5\n        /* \"#utility.yul\":927:933   */\n      dup3\n        /* \"#utility.yul\":916:925   */\n      dup6\n        /* \"#utility.yul\":912:934   */\n      add\n        /* \"#utility.yul\":891:944   */\n      tag_24\n      jump\t// in\n    tag_36:\n        /* \"#utility.yul\":881:944   */\n      swap2\n      pop\n        /* \"#utility.yul\":837:954   */\n      pop\n        /* \"#utility.yul\":632:961   */\n      swap3\n      swap2\n      pop\n      pop\n      jump\t// out\n        /* \"#utility.yul\":967:1085   */\n    tag_37:\n        /* \"#utility.yul\":1054:1078   */\n      tag_39\n        /* \"#utility.yul\":1072:1077   */\n      dup2\n        /* \"#utility.yul\":1054:1078   */\n      tag_40\n      jump\t// in\n    tag_39:\n        /* \"#utility.yul\":1049:1052   */\n      dup3\n        /* \"#utility.yul\":1042:1079   */\n      mstore\n        /* \"#utility.yul\":967:1085   */\n      pop\n      pop\n      jump\t// out\n        /* \"#utility.yul\":1091:1313   */\n    tag_14:\n        /* \"#utility.yul\":1184:1188   */\n      0x00\n        /* \"#utility.yul\":1222:1224   */\n      0x20\n        /* \"#utility.yul\":1211:1220   */\n      dup3\n        /* \"#utility.yul\":1207:1225   */\n      add\n        /* \"#utility.yul\":1199:1225   */\n      swap1\n      pop\n        /* \"#utility.yul\":1235:1306   */\n      tag_42\n        /* \"#utility.yul\":1303:1304   */\n      0x00\n        /* \"#utility.yul\":1292:1301   */\n      dup4\n        /* \"#utility.yul\":1288:1305   */\n      add\n        /* \"#utility.yul\":1279:1285   */\n      dup5\n        /* \"#utility.yul\":1235:1306   */\n      tag_37\n      jump\t// in\n    tag_42:\n        /* \"#utility.yul\":1091:1313   */\n      swap3\n      swap2\n      pop\n      pop\n      jump\t// out\n        /* \"#utility.yul\":1400:1705   */\n    tag_17:\n        /* \"#utility.yul\":1440:1443   */\n      0x00\n        /* \"#utility.yul\":1459:1479   */\n      tag_46\n        /* \"#utility.yul\":1477:1478   */\n      dup3\n        /* \"#utility.yul\":1459:1479   */\n      tag_40\n      jump\t// in\n    tag_46:\n        /* \"#utility.yul\":1454:1479   */\n      swap2\n      pop\n        /* \"#utility.yul\":1493:1513   */\n      tag_47\n        /* \"#utility.yul\":1511:1512   */\n      dup4\n        /* \"#utility.yul\":1493:1513   */\n      tag_40\n      jump\t// in\n    tag_47:\n        /* \"#utility.yul\":1488:1513   */\n      swap3\n      pop\n        /* \"#utility.yul\":1647:1648   */\n      dup3\n        /* \"#utility.yul\":1579:1645   */\n      0xffffffffffffffffffffffffffffffffffffffffffffffffffffffffffffffff\n        /* \"#utility.yul\":1575:1649   */\n      sub\n        /* \"#utility.yul\":1572:1573   */\n      dup3\n        /* \"#utility.yul\":1569:1650   */\n      gt\n        /* \"#utility.yul\":1566:1673   */\n      iszero\n      tag_48\n      jumpi\n        /* \"#utility.yul\":1653:1671   */\n      tag_49\n      tag_50\n      jump\t// in\n    tag_49:\n        /* \"#utility.yul\":1566:1673   */\n    tag_48:\n        /* \"#utility.yul\":1697:1698   */\n      dup3\n        /* \"#utility.yul\":1694:1695   */\n      dup3\n        /* \"#utility.yul\":1690:1699   */\n      add\n        /* \"#utility.yul\":1683:1699   */\n      swap1\n      pop\n        /* \"#utility.yul\":1400:1705   */\n      swap3\n      swap2\n      pop\n      pop\n      jump\t// out\n        /* \"#utility.yul\":1711:1807   */\n    tag_51:\n        /* \"#utility.yul\":1748:1755   */\n      0x00\n        /* \"#utility.yul\":1777:1801   */\n      tag_53\n        /* \"#utility.yul\":1795:1800   */\n      dup3\n        /* \"#utility.yul\":1777:1801   */\n      tag_54\n      jump\t// in\n    tag_53:\n        /* \"#utility.yul\":1766:1801   */\n      swap1\n      pop\n        /* \"#utility.yul\":1711:1807   */\n      swap2\n      swap1\n      pop\n      jump\t// out\n        /* \"#utility.yul\":1813:1939   */\n    tag_54:\n        /* \"#utility.yul\":1850:1857   */\n      0x00\n        /* \"#utility.yul\":1890:1932   */\n      0xffffffffffffffffffffffffffffffffffffffff\n        /* \"#utility.yul\":1883:1888   */\n      dup3\n        /* \"#utility.yul\":1879:1933   */\n      and\n        /* \"#utility.yul\":1868:1933   */\n      swap1\n      pop\n        /* \"#utility.yul\":1813:1939   */\n      swap2\n      swap1\n      pop\n      jump\t// out\n        /* \"#utility.yul\":1945:2022   */\n    tag_40:\n        /* \"#utility.yul\":1982:1989   */\n      0x00\n        /* \"#utility.yul\":2011:2016   */\n      dup2\n        /* \"#utility.yul\":2000:2016   */\n      swap1\n      pop\n        /* \"#utility.yul\":1945:2022   */\n      swap2\n      swap1\n      pop\n      jump\t// out\n        /* \"#utility.yul\":2028:2208   */\n    tag_50:\n        /* \"#utility.yul\":2076:2153   */\n      0x4e487b7100000000000000000000000000000000000000000000000000000000\n        /* \"#utility.yul\":2073:2074   */\n      0x00\n        /* \"#utility.yul\":2066:2154   */\n      mstore\n        /* \"#utility.yul\":2173:2177   */\n      0x11\n        /* \"#utility.yul\":2170:2171   */\n      0x04\n        /* \"#utility.yul\":2163:2178   */\n      mstore\n        /* \"#utility.yul\":2197:2201   */\n      0x24\n        /* \"#utility.yul\":2194:2195   */\n      0x00\n        /* \"#utility.yul\":2187:2202   */\n      revert\n        /* \"#utility.yul\":2337:2454   */\n    tag_31:\n        /* \"#utility.yul\":2446:2447   */\n      0x00\n        /* \"#utility.yul\":2443:2444   */\n      dup1\n        /* \"#utility.yul\":2436:2448   */\n      revert\n        /* \"#utility.yul\":2460:2582   */\n    tag_23:\n        /* \"#utility.yul\":2533:2557   */\n      tag_62\n        /* \"#utility.yul\":2551:2556   */\n      dup2\n        /* \"#utility.yul\":2533:2557   */\n      tag_51\n      jump\t// in\n    tag_62:\n        /* \"#utility.yul\":2526:2531   */\n      dup2\n        /* \"#utility.yul\":2523:2558   */\n      eq\n        /* \"#utility.yul\":2513:2576   */\n      tag_63\n      jumpi\n        /* \"#utility.yul\":2572:2573   */\n      0x00\n        /* \"#utility.yul\":2569:2570   */\n      dup1\n        /* \"#utility.yul\":2562:2574   */\n      revert\n        /* \"#utility.yul\":2513:2576   */\n    tag_63:\n        /* \"#utility.yul\":2460:2582   */\n      pop\n      jump\t// out\n        /* \"#utility.yul\":2588:2710   */\n    tag_27:\n        /* \"#utility.yul\":2661:2685   */\n      tag_65\n        /* \"#utility.yul\":2679:2684   */\n      dup2\n        /* \"#utility.yul\":2661:2685   */\n      tag_40\n      jump\t// in\n    tag_65:\n        /* \"#utility.yul\":2654:2659   */\n      dup2\n        /* \"#utility.yul\":2651:2686   */\n      eq\n        /* \"#utility.yul\":2641:2704   */\n      tag_66\n      jumpi\n        /* \"#utility.yul\":2700:2701   */\n      0x00\n        /* \"#utility.yul\":2697:2698   */\n      dup1\n        /* \"#utility.yul\":2690:2702   */\n      revert\n        /* \"#utility.yul\":2641:2704   */\n    tag_66:\n        /* \"#utility.yul\":2588:2710   */\n      pop\n      jump\t// out\n\n    auxdata: 0xa2646970667358221220f24f94a064ac18db8899d1d4fb0fbb25fe17fcdb1924583eab7daf154c2d156564736f6c63430008070033\n}\n",
				"bytecode": {
					"linkReferences": {},
					"object": "608060405234801561001057600080fd5b506102e2806100206000396000f3fe608060405234801561001057600080fd5b50600436106100365760003560e01c8063b6b55f251461003b578063f8b2cb4f14610057575b600080fd5b61005560048036038101906100509190610161565b610087565b005b610071600480360381019061006c9190610134565b6100e0565b60405161007e919061019d565b60405180910390f35b80600160003373ffffffffffffffffffffffffffffffffffffffff1673ffffffffffffffffffffffffffffffffffffffff16815260200190815260200160002060008282546100d691906101b8565b9250508190555050565b60008173ffffffffffffffffffffffffffffffffffffffff16316000819055506000549050919050565b6000813590506101198161027e565b92915050565b60008135905061012e81610295565b92915050565b60006020828403121561014a57610149610279565b5b60006101588482850161010a565b91505092915050565b60006020828403121561017757610176610279565b5b60006101858482850161011f565b91505092915050565b61019781610240565b82525050565b60006020820190506101b2600083018461018e565b92915050565b60006101c382610240565b91506101ce83610240565b9250827fffffffffffffffffffffffffffffffffffffffffffffffffffffffffffffffff038211156102035761020261024a565b5b828201905092915050565b600061021982610220565b9050919050565b600073ffffffffffffffffffffffffffffffffffffffff82169050919050565b6000819050919050565b7f4e487b7100000000000000000000000000000000000000000000000000000000600052601160045260246000fd5b600080fd5b6102878161020e565b811461029257600080fd5b50565b61029e81610240565b81146102a957600080fd5b5056fea2646970667358221220f24f94a064ac18db8899d1d4fb0fbb25fe17fcdb1924583eab7daf154c2d156564736f6c63430008070033",
					"opcodes": "PUSH1 0x80 PUSH1 0x40 MSTORE CALLVALUE DUP1 ISZERO PUSH2 0x10 JUMPI PUSH1 0x0 DUP1 REVERT JUMPDEST POP PUSH2 0x2E2 DUP1 PUSH2 0x20 PUSH1 0x0 CODECOPY PUSH1 0x0 RETURN INVALID PUSH1 0x80 PUSH1 0x40 MSTORE CALLVALUE DUP1 ISZERO PUSH2 0x10 JUMPI PUSH1 0x0 DUP1 REVERT JUMPDEST POP PUSH1 0x4 CALLDATASIZE LT PUSH2 0x36 JUMPI PUSH1 0x0 CALLDATALOAD PUSH1 0xE0 SHR DUP1 PUSH4 0xB6B55F25 EQ PUSH2 0x3B JUMPI DUP1 PUSH4 0xF8B2CB4F EQ PUSH2 0x57 JUMPI JUMPDEST PUSH1 0x0 DUP1 REVERT JUMPDEST PUSH2 0x55 PUSH1 0x4 DUP1 CALLDATASIZE SUB DUP2 ADD SWAP1 PUSH2 0x50 SWAP2 SWAP1 PUSH2 0x161 JUMP JUMPDEST PUSH2 0x87 JUMP JUMPDEST STOP JUMPDEST PUSH2 0x71 PUSH1 0x4 DUP1 CALLDATASIZE SUB DUP2 ADD SWAP1 PUSH2 0x6C SWAP2 SWAP1 PUSH2 0x134 JUMP JUMPDEST PUSH2 0xE0 JUMP JUMPDEST PUSH1 0x40 MLOAD PUSH2 0x7E SWAP2 SWAP1 PUSH2 0x19D JUMP JUMPDEST PUSH1 0x40 MLOAD DUP1 SWAP2 SUB SWAP1 RETURN JUMPDEST DUP1 PUSH1 0x1 PUSH1 0x0 CALLER PUSH20 0xFFFFFFFFFFFFFFFFFFFFFFFFFFFFFFFFFFFFFFFF AND PUSH20 0xFFFFFFFFFFFFFFFFFFFFFFFFFFFFFFFFFFFFFFFF AND DUP2 MSTORE PUSH1 0x20 ADD SWAP1 DUP2 MSTORE PUSH1 0x20 ADD PUSH1 0x0 KECCAK256 PUSH1 0x0 DUP3 DUP3 SLOAD PUSH2 0xD6 SWAP2 SWAP1 PUSH2 0x1B8 JUMP JUMPDEST SWAP3 POP POP DUP2 SWAP1 SSTORE POP POP JUMP JUMPDEST PUSH1 0x0 DUP2 PUSH20 0xFFFFFFFFFFFFFFFFFFFFFFFFFFFFFFFFFFFFFFFF AND BALANCE PUSH1 0x0 DUP2 SWAP1 SSTORE POP PUSH1 0x0 SLOAD SWAP1 POP SWAP2 SWAP1 POP JUMP JUMPDEST PUSH1 0x0 DUP2 CALLDATALOAD SWAP1 POP PUSH2 0x119 DUP2 PUSH2 0x27E JUMP JUMPDEST SWAP3 SWAP2 POP POP JUMP JUMPDEST PUSH1 0x0 DUP2 CALLDATALOAD SWAP1 POP PUSH2 0x12E DUP2 PUSH2 0x295 JUMP JUMPDEST SWAP3 SWAP2 POP POP JUMP JUMPDEST PUSH1 0x0 PUSH1 0x20 DUP3 DUP5 SUB SLT ISZERO PUSH2 0x14A JUMPI PUSH2 0x149 PUSH2 0x279 JUMP JUMPDEST JUMPDEST PUSH1 0x0 PUSH2 0x158 DUP5 DUP3 DUP6 ADD PUSH2 0x10A JUMP JUMPDEST SWAP2 POP POP SWAP3 SWAP2 POP POP JUMP JUMPDEST PUSH1 0x0 PUSH1 0x20 DUP3 DUP5 SUB SLT ISZERO PUSH2 0x177 JUMPI PUSH2 0x176 PUSH2 0x279 JUMP JUMPDEST JUMPDEST PUSH1 0x0 PUSH2 0x185 DUP5 DUP3 DUP6 ADD PUSH2 0x11F JUMP JUMPDEST SWAP2 POP POP SWAP3 SWAP2 POP POP JUMP JUMPDEST PUSH2 0x197 DUP2 PUSH2 0x240 JUMP JUMPDEST DUP3 MSTORE POP POP JUMP JUMPDEST PUSH1 0x0 PUSH1 0x20 DUP3 ADD SWAP1 POP PUSH2 0x1B2 PUSH1 0x0 DUP4 ADD DUP5 PUSH2 0x18E JUMP JUMPDEST SWAP3 SWAP2 POP POP JUMP JUMPDEST PUSH1 0x0 PUSH2 0x1C3 DUP3 PUSH2 0x240 JUMP JUMPDEST SWAP2 POP PUSH2 0x1CE DUP4 PUSH2 0x240 JUMP JUMPDEST SWAP3 POP DUP3 PUSH32 0xFFFFFFFFFFFFFFFFFFFFFFFFFFFFFFFFFFFFFFFFFFFFFFFFFFFFFFFFFFFFFFFF SUB DUP3 GT ISZERO PUSH2 0x203 JUMPI PUSH2 0x202 PUSH2 0x24A JUMP JUMPDEST JUMPDEST DUP3 DUP3 ADD SWAP1 POP SWAP3 SWAP2 POP POP JUMP JUMPDEST PUSH1 0x0 PUSH2 0x219 DUP3 PUSH2 0x220 JUMP JUMPDEST SWAP1 POP SWAP2 SWAP1 POP JUMP JUMPDEST PUSH1 0x0 PUSH20 0xFFFFFFFFFFFFFFFFFFFFFFFFFFFFFFFFFFFFFFFF DUP3 AND SWAP1 POP SWAP2 SWAP1 POP JUMP JUMPDEST PUSH1 0x0 DUP2 SWAP1 POP SWAP2 SWAP1 POP JUMP JUMPDEST PUSH32 0x4E487B7100000000000000000000000000000000000000000000000000000000 PUSH1 0x0 MSTORE PUSH1 0x11 PUSH1 0x4 MSTORE PUSH1 0x24 PUSH1 0x0 REVERT JUMPDEST PUSH1 0x0 DUP1 REVERT JUMPDEST PUSH2 0x287 DUP2 PUSH2 0x20E JUMP JUMPDEST DUP2 EQ PUSH2 0x292 JUMPI PUSH1 0x0 DUP1 REVERT JUMPDEST POP JUMP JUMPDEST PUSH2 0x29E DUP2 PUSH2 0x240 JUMP JUMPDEST DUP2 EQ PUSH2 0x2A9 JUMPI PUSH1 0x0 DUP1 REVERT JUMPDEST POP JUMP INVALID LOG2 PUSH5 0x6970667358 0x22 SLT KECCAK256 CALLCODE 0x4F SWAP5 LOG0 PUSH5 0xAC18DB8899 0xD1 0xD4 0xFB 0xF 0xBB 0x25 INVALID OR 0xFC 0xDB NOT 0x24 PC RETURNDATACOPY 0xAB PUSH30 0xAF154C2D156564736F6C6343000807003300000000000000000000000000 "
				},
				"gasEstimates": {
					"creation": {
						"codeDepositCost": "147600",
						"executionCost": "196",
						"totalCost": "147796"
					},
					"external": {
						"deposit(uint256)": "infinite",
						"getBalance(address)": "27471"
					}
				},
				"methodIdentifiers": {
					"deposit(uint256)": "b6b55f25",
					"getBalance(address)": "f8b2cb4f"
				}
			},
			"userdoc": {
				"kind": "user",
				"methods": {},
				"version": 1
			}
		}
	}
}