{
	"tutorial2/DepositAndRefund.sol": {
		"depositAndRefund": {
			"abi": [
				{
					"inputs": [
						{
							"internalType": "uint256",
							"name": "amountInEth",
							"type": "uint256"
						}
					],
					"name": "deposit",
					"outputs": [],
					"stateMutability": "payable",
					"type": "function"
				},
				{
					"inputs": [
						{
							"internalType": "address",
							"name": "_party",
							"type": "address"
						}
					],
					"name": "getBalance",
					"outputs": [
						{
							"internalType": "uint256",
							"name": "",
							"type": "uint256"
						}
					],
					"stateMutability": "nonpayable",
					"type": "function"
				},
				{
					"inputs": [
						{
							"internalType": "uint256",
							"name": "amountInEth",
							"type": "uint256"
						}
					],
					"name": "withdraw",
					"outputs": [],
					"stateMutability": "payable",
					"type": "function"
				}
			],
			"devdoc": {
				"kind": "dev",
				"methods": {},
				"version": 1
			},
			"evm": {
				"assembly": "    /* \"tutorial2/DepositAndRefund.sol\":70:886  contract depositAndRefund{... */\n  mstore(0x40, 0x80)\n  callvalue\n  dup1\n  iszero\n  tag_1\n  jumpi\n  0x00\n  dup1\n  revert\ntag_1:\n  pop\n  dataSize(sub_0)\n  dup1\n  dataOffset(sub_0)\n  0x00\n  codecopy\n  0x00\n  return\nstop\n\nsub_0: assembly {\n        /* \"tutorial2/DepositAndRefund.sol\":70:886  contract depositAndRefund{... */\n      mstore(0x40, 0x80)\n      jumpi(tag_1, lt(calldatasize, 0x04))\n      shr(0xe0, calldataload(0x00))\n      dup1\n      0x2e1a7d4d\n      eq\n      tag_2\n      jumpi\n      dup1\n      0xb6b55f25\n      eq\n      tag_3\n      jumpi\n      dup1\n      0xf8b2cb4f\n      eq\n      tag_4\n      jumpi\n    tag_1:\n      0x00\n      dup1\n      revert\n        /* \"tutorial2/DepositAndRefund.sol\":524:787  function withdraw(uint256 amountInEth) public payable{... */\n    tag_2:\n      tag_5\n      0x04\n      dup1\n      calldatasize\n      sub\n      dup2\n      add\n      swap1\n      tag_6\n      swap2\n      swap1\n      tag_7\n      jump\t// in\n    tag_6:\n      tag_8\n      jump\t// in\n    tag_5:\n      stop\n        /* \"tutorial2/DepositAndRefund.sol\":306:518  function deposit(uint256 amountInEth) public payable{... */\n    tag_3:\n      tag_9\n      0x04\n      dup1\n      calldatasize\n      sub\n      dup2\n      add\n      swap1\n      tag_10\n      swap2\n      swap1\n      tag_7\n      jump\t// in\n    tag_10:\n      tag_11\n      jump\t// in\n    tag_9:\n      stop\n        /* \"tutorial2/DepositAndRefund.sol\":169:299  function getBalance(address _party) public returns(uint){... */\n    tag_4:\n      callvalue\n      dup1\n      iszero\n      tag_12\n      jumpi\n      0x00\n      dup1\n      revert\n    tag_12:\n      pop\n      tag_13\n      0x04\n      dup1\n      calldatasize\n      sub\n      dup2\n      add\n      swap1\n      tag_14\n      swap2\n      swap1\n      tag_15\n      jump\t// in\n    tag_14:\n      tag_16\n      jump\t// in\n    tag_13:\n      mload(0x40)\n      tag_17\n      swap2\n      swap1\n      tag_18\n      jump\t// in\n    tag_17:\n      mload(0x40)\n      dup1\n      swap2\n      sub\n      swap1\n      return\n        /* \"tutorial2/DepositAndRefund.sol\":524:787  function withdraw(uint256 amountInEth) public payable{... */\n    tag_8:\n        /* \"tutorial2/DepositAndRefund.sol\":635:654  1000000000000000000 */\n      0x0de0b6b3a7640000\n        /* \"tutorial2/DepositAndRefund.sol\":621:632  amountInEth */\n      dup2\n        /* \"tutorial2/DepositAndRefund.sol\":621:654  amountInEth * 1000000000000000000 */\n      tag_20\n      swap2\n      swap1\n      tag_21\n      jump\t// in\n    tag_20:\n        /* \"tutorial2/DepositAndRefund.sol\":595:617  getBalance(msg.sender) */\n      tag_22\n        /* \"tutorial2/DepositAndRefund.sol\":606:616  msg.sender */\n      caller\n        /* \"tutorial2/DepositAndRefund.sol\":595:605  getBalance */\n      tag_16\n        /* \"tutorial2/DepositAndRefund.sol\":595:617  getBalance(msg.sender) */\n      jump\t// in\n    tag_22:\n        /* \"tutorial2/DepositAndRefund.sol\":595:654  getBalance(msg.sender) >= amountInEth * 1000000000000000000 */\n      lt\n      iszero\n        /* \"tutorial2/DepositAndRefund.sol\":587:655  require(getBalance(msg.sender) >= amountInEth * 1000000000000000000) */\n      tag_23\n      jumpi\n      0x00\n      dup1\n      revert\n    tag_23:\n        /* \"tutorial2/DepositAndRefund.sol\":695:706  amountInEth */\n      dup1\n        /* \"tutorial2/DepositAndRefund.sol\":665:679  balanceMapping */\n      0x01\n        /* \"tutorial2/DepositAndRefund.sol\":665:691  balanceMapping[msg.sender] */\n      0x00\n        /* \"tutorial2/DepositAndRefund.sol\":680:690  msg.sender */\n      caller\n        /* \"tutorial2/DepositAndRefund.sol\":665:691  balanceMapping[msg.sender] */\n      0xffffffffffffffffffffffffffffffffffffffff\n      and\n      0xffffffffffffffffffffffffffffffffffffffff\n      and\n      dup2\n      mstore\n      0x20\n      add\n      swap1\n      dup2\n      mstore\n      0x20\n      add\n      0x00\n      keccak256\n      0x00\n        /* \"tutorial2/DepositAndRefund.sol\":665:706  balanceMapping[msg.sender] -= amountInEth */\n      dup3\n      dup3\n      sload\n      tag_24\n      swap2\n      swap1\n      tag_25\n      jump\t// in\n    tag_24:\n      swap3\n      pop\n      pop\n      dup2\n      swap1\n      sstore\n      pop\n        /* \"tutorial2/DepositAndRefund.sol\":725:735  msg.sender */\n      caller\n        /* \"tutorial2/DepositAndRefund.sol\":717:745  payable(msg.sender).transfer */\n      0xffffffffffffffffffffffffffffffffffffffff\n      and\n        /* \"tutorial2/DepositAndRefund.sol\":717:780  payable(msg.sender).transfer(amountInEth * 1000000000000000000) */\n      0x08fc\n        /* \"tutorial2/DepositAndRefund.sol\":760:779  1000000000000000000 */\n      0x0de0b6b3a7640000\n        /* \"tutorial2/DepositAndRefund.sol\":746:757  amountInEth */\n      dup4\n        /* \"tutorial2/DepositAndRefund.sol\":746:779  amountInEth * 1000000000000000000 */\n      tag_26\n      swap2\n      swap1\n      tag_21\n      jump\t// in\n    tag_26:\n        /* \"tutorial2/DepositAndRefund.sol\":717:780  payable(msg.sender).transfer(amountInEth * 1000000000000000000) */\n      swap1\n      dup2\n      iszero\n      mul\n      swap1\n      mload(0x40)\n      0x00\n      mload(0x40)\n      dup1\n      dup4\n      sub\n      dup2\n      dup6\n      dup9\n      dup9\n      call\n      swap4\n      pop\n      pop\n      pop\n      pop\n      iszero\n      dup1\n      iszero\n      tag_28\n      jumpi\n      returndatasize\n      0x00\n      dup1\n      returndatacopy\n      revert(0x00, returndatasize)\n    tag_28:\n      pop\n        /* \"tutorial2/DepositAndRefund.sol\":524:787  function withdraw(uint256 amountInEth) public payable{... */\n      pop\n      jump\t// out\n        /* \"tutorial2/DepositAndRefund.sol\":306:518  function deposit(uint256 amountInEth) public payable{... */\n    tag_11:\n        /* \"tutorial2/DepositAndRefund.sol\":416:435  1000000000000000000 */\n      0x0de0b6b3a7640000\n        /* \"tutorial2/DepositAndRefund.sol\":402:413  amountInEth */\n      dup2\n        /* \"tutorial2/DepositAndRefund.sol\":402:435  amountInEth * 1000000000000000000 */\n      tag_30\n      swap2\n      swap1\n      tag_21\n      jump\t// in\n    tag_30:\n        /* \"tutorial2/DepositAndRefund.sol\":376:398  getBalance(msg.sender) */\n      tag_31\n        /* \"tutorial2/DepositAndRefund.sol\":387:397  msg.sender */\n      caller\n        /* \"tutorial2/DepositAndRefund.sol\":376:386  getBalance */\n      tag_16\n        /* \"tutorial2/DepositAndRefund.sol\":376:398  getBalance(msg.sender) */\n      jump\t// in\n    tag_31:\n        /* \"tutorial2/DepositAndRefund.sol\":376:435  getBalance(msg.sender) >= amountInEth * 1000000000000000000 */\n      lt\n      iszero\n        /* \"tutorial2/DepositAndRefund.sol\":368:436  require(getBalance(msg.sender) >= amountInEth * 1000000000000000000) */\n      tag_32\n      jumpi\n      0x00\n      dup1\n      revert\n    tag_32:\n        /* \"tutorial2/DepositAndRefund.sol\":490:509  1000000000000000000 */\n      0x0de0b6b3a7640000\n        /* \"tutorial2/DepositAndRefund.sol\":477:488  amountInEth */\n      dup2\n        /* \"tutorial2/DepositAndRefund.sol\":477:509  amountInEth* 1000000000000000000 */\n      tag_33\n      swap2\n      swap1\n      tag_21\n      jump\t// in\n    tag_33:\n        /* \"tutorial2/DepositAndRefund.sol\":446:460  balanceMapping */\n      0x01\n        /* \"tutorial2/DepositAndRefund.sol\":446:472  balanceMapping[msg.sender] */\n      0x00\n        /* \"tutorial2/DepositAndRefund.sol\":461:471  msg.sender */\n      caller\n        /* \"tutorial2/DepositAndRefund.sol\":446:472  balanceMapping[msg.sender] */\n      0xffffffffffffffffffffffffffffffffffffffff\n      and\n      0xffffffffffffffffffffffffffffffffffffffff\n      and\n      dup2\n      mstore\n      0x20\n      add\n      swap1\n      dup2\n      mstore\n      0x20\n      add\n      0x00\n      keccak256\n      0x00\n        /* \"tutorial2/DepositAndRefund.sol\":446:510  balanceMapping[msg.sender] += (amountInEth* 1000000000000000000) */\n      dup3\n      dup3\n      sload\n      tag_34\n      swap2\n      swap1\n      tag_35\n      jump\t// in\n    tag_34:\n      swap3\n      pop\n      pop\n      dup2\n      swap1\n      sstore\n      pop\n        /* \"tutorial2/DepositAndRefund.sol\":306:518  function deposit(uint256 amountInEth) public payable{... */\n      pop\n      jump\t// out\n        /* \"tutorial2/DepositAndRefund.sol\":169:299  function getBalance(address _party) public returns(uint){... */\n    tag_16:\n        /* \"tutorial2/DepositAndRefund.sol\":220:224  uint */\n      0x00\n        /* \"tutorial2/DepositAndRefund.sol\":253:259  _party */\n      dup2\n        /* \"tutorial2/DepositAndRefund.sol\":245:268  address(_party).balance */\n      0xffffffffffffffffffffffffffffffffffffffff\n      and\n      balance\n        /* \"tutorial2/DepositAndRefund.sol\":235:242  balance */\n      0x00\n        /* \"tutorial2/DepositAndRefund.sol\":235:268  balance = address(_party).balance */\n      dup2\n      swap1\n      sstore\n      pop\n        /* \"tutorial2/DepositAndRefund.sol\":285:292  balance */\n      sload(0x00)\n        /* \"tutorial2/DepositAndRefund.sol\":278:292  return balance */\n      swap1\n      pop\n        /* \"tutorial2/DepositAndRefund.sol\":169:299  function getBalance(address _party) public returns(uint){... */\n      swap2\n      swap1\n      pop\n      jump\t// out\n        /* \"#utility.yul\":7:146   */\n    tag_38:\n        /* \"#utility.yul\":53:58   */\n      0x00\n        /* \"#utility.yul\":91:97   */\n      dup2\n        /* \"#utility.yul\":78:98   */\n      calldataload\n        /* \"#utility.yul\":69:98   */\n      swap1\n      pop\n        /* \"#utility.yul\":107:140   */\n      tag_40\n        /* \"#utility.yul\":134:139   */\n      dup2\n        /* \"#utility.yul\":107:140   */\n      tag_41\n      jump\t// in\n    tag_40:\n        /* \"#utility.yul\":7:146   */\n      swap3\n      swap2\n      pop\n      pop\n      jump\t// out\n        /* \"#utility.yul\":152:291   */\n    tag_42:\n        /* \"#utility.yul\":198:203   */\n      0x00\n        /* \"#utility.yul\":236:242   */\n      dup2\n        /* \"#utility.yul\":223:243   */\n      calldataload\n        /* \"#utility.yul\":214:243   */\n      swap1\n      pop\n        /* \"#utility.yul\":252:285   */\n      tag_44\n        /* \"#utility.yul\":279:284   */\n      dup2\n        /* \"#utility.yul\":252:285   */\n      tag_45\n      jump\t// in\n    tag_44:\n        /* \"#utility.yul\":152:291   */\n      swap3\n      swap2\n      pop\n      pop\n      jump\t// out\n        /* \"#utility.yul\":297:626   */\n    tag_15:\n        /* \"#utility.yul\":356:362   */\n      0x00\n        /* \"#utility.yul\":405:407   */\n      0x20\n        /* \"#utility.yul\":393:402   */\n      dup3\n        /* \"#utility.yul\":384:391   */\n      dup5\n        /* \"#utility.yul\":380:403   */\n      sub\n        /* \"#utility.yul\":376:408   */\n      slt\n        /* \"#utility.yul\":373:492   */\n      iszero\n      tag_47\n      jumpi\n        /* \"#utility.yul\":411:490   */\n      tag_48\n      tag_49\n      jump\t// in\n    tag_48:\n        /* \"#utility.yul\":373:492   */\n    tag_47:\n        /* \"#utility.yul\":531:532   */\n      0x00\n        /* \"#utility.yul\":556:609   */\n      tag_50\n        /* \"#utility.yul\":601:608   */\n      dup5\n        /* \"#utility.yul\":592:598   */\n      dup3\n        /* \"#utility.yul\":581:590   */\n      dup6\n        /* \"#utility.yul\":577:599   */\n      add\n        /* \"#utility.yul\":556:609   */\n      tag_38\n      jump\t// in\n    tag_50:\n        /* \"#utility.yul\":546:609   */\n      swap2\n      pop\n        /* \"#utility.yul\":502:619   */\n      pop\n        /* \"#utility.yul\":297:626   */\n      swap3\n      swap2\n      pop\n      pop\n      jump\t// out\n        /* \"#utility.yul\":632:961   */\n    tag_7:\n        /* \"#utility.yul\":691:697   */\n      0x00\n        /* \"#utility.yul\":740:742   */\n      0x20\n        /* \"#utility.yul\":728:737   */\n      dup3\n        /* \"#utility.yul\":719:726   */\n      dup5\n        /* \"#utility.yul\":715:738   */\n      sub\n        /* \"#utility.yul\":711:743   */\n      slt\n        /* \"#utility.yul\":708:827   */\n      iszero\n      tag_52\n      jumpi\n        /* \"#utility.yul\":746:825   */\n      tag_53\n      tag_49\n      jump\t// in\n    tag_53:\n        /* \"#utility.yul\":708:827   */\n    tag_52:\n        /* \"#utility.yul\":866:867   */\n      0x00\n        /* \"#utility.yul\":891:944   */\n      tag_54\n        /* \"#utility.yul\":936:943   */\n      dup5\n        /* \"#utility.yul\":927:933   */\n      dup3\n        /* \"#utility.yul\":916:925   */\n      dup6\n        /* \"#utility.yul\":912:934   */\n      add\n        /* \"#utility.yul\":891:944   */\n      tag_42\n      jump\t// in\n    tag_54:\n        /* \"#utility.yul\":881:944   */\n      swap2\n      pop\n        /* \"#utility.yul\":837:954   */\n      pop\n        /* \"#utility.yul\":632:961   */\n      swap3\n      swap2\n      pop\n      pop\n      jump\t// out\n        /* \"#utility.yul\":967:1085   */\n    tag_55:\n        /* \"#utility.yul\":1054:1078   */\n      tag_57\n        /* \"#utility.yul\":1072:1077   */\n      dup2\n        /* \"#utility.yul\":1054:1078   */\n      tag_58\n      jump\t// in\n    tag_57:\n        /* \"#utility.yul\":1049:1052   */\n      dup3\n        /* \"#utility.yul\":1042:1079   */\n      mstore\n        /* \"#utility.yul\":967:1085   */\n      pop\n      pop\n      jump\t// out\n        /* \"#utility.yul\":1091:1313   */\n    tag_18:\n        /* \"#utility.yul\":1184:1188   */\n      0x00\n        /* \"#utility.yul\":1222:1224   */\n      0x20\n        /* \"#utility.yul\":1211:1220   */\n      dup3\n        /* \"#utility.yul\":1207:1225   */\n      add\n        /* \"#utility.yul\":1199:1225   */\n      swap1\n      pop\n        /* \"#utility.yul\":1235:1306   */\n      tag_60\n        /* \"#utility.yul\":1303:1304   */\n      0x00\n        /* \"#utility.yul\":1292:1301   */\n      dup4\n        /* \"#utility.yul\":1288:1305   */\n      add\n        /* \"#utility.yul\":1279:1285   */\n      dup5\n        /* \"#utility.yul\":1235:1306   */\n      tag_55\n      jump\t// in\n    tag_60:\n        /* \"#utility.yul\":1091:1313   */\n      swap3\n      swap2\n      pop\n      pop\n      jump\t// out\n        /* \"#utility.yul\":1400:1705   */\n    tag_35:\n        /* \"#utility.yul\":1440:1443   */\n      0x00\n        /* \"#utility.yul\":1459:1479   */\n      tag_64\n        /* \"#utility.yul\":1477:1478   */\n      dup3\n        /* \"#utility.yul\":1459:1479   */\n      tag_58\n      jump\t// in\n    tag_64:\n        /* \"#utility.yul\":1454:1479   */\n      swap2\n      pop\n        /* \"#utility.yul\":1493:1513   */\n      tag_65\n        /* \"#utility.yul\":1511:1512   */\n      dup4\n        /* \"#utility.yul\":1493:1513   */\n      tag_58\n      jump\t// in\n    tag_65:\n        /* \"#utility.yul\":1488:1513   */\n      swap3\n      pop\n        /* \"#utility.yul\":1647:1648   */\n      dup3\n        /* \"#utility.yul\":1579:1645   */\n      0xffffffffffffffffffffffffffffffffffffffffffffffffffffffffffffffff\n        /* \"#utility.yul\":1575:1649   */\n      sub\n        /* \"#utility.yul\":1572:1573   */\n      dup3\n        /* \"#utility.yul\":1569:1650   */\n      gt\n        /* \"#utility.yul\":1566:1673   */\n      iszero\n      tag_66\n      jumpi\n        /* \"#utility.yul\":1653:1671   */\n      tag_67\n      tag_68\n      jump\t// in\n    tag_67:\n        /* \"#utility.yul\":1566:1673   */\n    tag_66:\n        /* \"#utility.yul\":1697:1698   */\n      dup3\n        /* \"#utility.yul\":1694:1695   */\n      dup3\n        /* \"#utility.yul\":1690:1699   */\n      add\n        /* \"#utility.yul\":1683:1699   */\n      swap1\n      pop\n        /* \"#utility.yul\":1400:1705   */\n      swap3\n      swap2\n      pop\n      pop\n      jump\t// out\n        /* \"#utility.yul\":1711:2059   */\n    tag_21:\n        /* \"#utility.yul\":1751:1758   */\n      0x00\n        /* \"#utility.yul\":1774:1794   */\n      tag_70\n        /* \"#utility.yul\":1792:1793   */\n      dup3\n        /* \"#utility.yul\":1774:1794   */\n      tag_58\n      jump\t// in\n    tag_70:\n        /* \"#utility.yul\":1769:1794   */\n      swap2\n      pop\n        /* \"#utility.yul\":1808:1828   */\n      tag_71\n        /* \"#utility.yul\":1826:1827   */\n      dup4\n        /* \"#utility.yul\":1808:1828   */\n      tag_58\n      jump\t// in\n    tag_71:\n        /* \"#utility.yul\":1803:1828   */\n      swap3\n      pop\n        /* \"#utility.yul\":1996:1997   */\n      dup2\n        /* \"#utility.yul\":1928:1994   */\n      0xffffffffffffffffffffffffffffffffffffffffffffffffffffffffffffffff\n        /* \"#utility.yul\":1924:1998   */\n      div\n        /* \"#utility.yul\":1921:1922   */\n      dup4\n        /* \"#utility.yul\":1918:1999   */\n      gt\n        /* \"#utility.yul\":1913:1914   */\n      dup3\n        /* \"#utility.yul\":1906:1915   */\n      iszero\n        /* \"#utility.yul\":1899:1916   */\n      iszero\n        /* \"#utility.yul\":1895:2000   */\n      and\n        /* \"#utility.yul\":1892:2023   */\n      iszero\n      tag_72\n      jumpi\n        /* \"#utility.yul\":2003:2021   */\n      tag_73\n      tag_68\n      jump\t// in\n    tag_73:\n        /* \"#utility.yul\":1892:2023   */\n    tag_72:\n        /* \"#utility.yul\":2051:2052   */\n      dup3\n        /* \"#utility.yul\":2048:2049   */\n      dup3\n        /* \"#utility.yul\":2044:2053   */\n      mul\n        /* \"#utility.yul\":2033:2053   */\n      swap1\n      pop\n        /* \"#utility.yul\":1711:2059   */\n      swap3\n      swap2\n      pop\n      pop\n      jump\t// out\n        /* \"#utility.yul\":2065:2256   */\n    tag_25:\n        /* \"#utility.yul\":2105:2109   */\n      0x00\n        /* \"#utility.yul\":2125:2145   */\n      tag_75\n        /* \"#utility.yul\":2143:2144   */\n      dup3\n        /* \"#utility.yul\":2125:2145   */\n      tag_58\n      jump\t// in\n    tag_75:\n        /* \"#utility.yul\":2120:2145   */\n      swap2\n      pop\n        /* \"#utility.yul\":2159:2179   */\n      tag_76\n        /* \"#utility.yul\":2177:2178   */\n      dup4\n        /* \"#utility.yul\":2159:2179   */\n      tag_58\n      jump\t// in\n    tag_76:\n        /* \"#utility.yul\":2154:2179   */\n      swap3\n      pop\n        /* \"#utility.yul\":2198:2199   */\n      dup3\n        /* \"#utility.yul\":2195:2196   */\n      dup3\n        /* \"#utility.yul\":2192:2200   */\n      lt\n        /* \"#utility.yul\":2189:2223   */\n      iszero\n      tag_77\n      jumpi\n        /* \"#utility.yul\":2203:2221   */\n      tag_78\n      tag_68\n      jump\t// in\n    tag_78:\n        /* \"#utility.yul\":2189:2223   */\n    tag_77:\n        /* \"#utility.yul\":2248:2249   */\n      dup3\n        /* \"#utility.yul\":2245:2246   */\n      dup3\n        /* \"#utility.yul\":2241:2250   */\n      sub\n        /* \"#utility.yul\":2233:2250   */\n      swap1\n      pop\n        /* \"#utility.yul\":2065:2256   */\n      swap3\n      swap2\n      pop\n      pop\n      jump\t// out\n        /* \"#utility.yul\":2262:2358   */\n    tag_79:\n        /* \"#utility.yul\":2299:2306   */\n      0x00\n        /* \"#utility.yul\":2328:2352   */\n      tag_81\n        /* \"#utility.yul\":2346:2351   */\n      dup3\n        /* \"#utility.yul\":2328:2352   */\n      tag_82\n      jump\t// in\n    tag_81:\n        /* \"#utility.yul\":2317:2352   */\n      swap1\n      pop\n        /* \"#utility.yul\":2262:2358   */\n      swap2\n      swap1\n      pop\n      jump\t// out\n        /* \"#utility.yul\":2364:2490   */\n    tag_82:\n        /* \"#utility.yul\":2401:2408   */\n      0x00\n        /* \"#utility.yul\":2441:2483   */\n      0xffffffffffffffffffffffffffffffffffffffff\n        /* \"#utility.yul\":2434:2439   */\n      dup3\n        /* \"#utility.yul\":2430:2484   */\n      and\n        /* \"#utility.yul\":2419:2484   */\n      swap1\n      pop\n        /* \"#utility.yul\":2364:2490   */\n      swap2\n      swap1\n      pop\n      jump\t// out\n        /* \"#utility.yul\":2496:2573   */\n    tag_58:\n        /* \"#utility.yul\":2533:2540   */\n      0x00\n        /* \"#utility.yul\":2562:2567   */\n      dup2\n        /* \"#utility.yul\":2551:2567   */\n      swap1\n      pop\n        /* \"#utility.yul\":2496:2573   */\n      swap2\n      swap1\n      pop\n      jump\t// out\n        /* \"#utility.yul\":2579:2759   */\n    tag_68:\n        /* \"#utility.yul\":2627:2704   */\n      0x4e487b7100000000000000000000000000000000000000000000000000000000\n        /* \"#utility.yul\":2624:2625   */\n      0x00\n        /* \"#utility.yul\":2617:2705   */\n      mstore\n        /* \"#utility.yul\":2724:2728   */\n      0x11\n        /* \"#utility.yul\":2721:2722   */\n      0x04\n        /* \"#utility.yul\":2714:2729   */\n      mstore\n        /* \"#utility.yul\":2748:2752   */\n      0x24\n        /* \"#utility.yul\":2745:2746   */\n      0x00\n        /* \"#utility.yul\":2738:2753   */\n      revert\n        /* \"#utility.yul\":2888:3005   */\n    tag_49:\n        /* \"#utility.yul\":2997:2998   */\n      0x00\n        /* \"#utility.yul\":2994:2995   */\n      dup1\n        /* \"#utility.yul\":2987:2999   */\n      revert\n        /* \"#utility.yul\":3011:3133   */\n    tag_41:\n        /* \"#utility.yul\":3084:3108   */\n      tag_90\n        /* \"#utility.yul\":3102:3107   */\n      dup2\n        /* \"#utility.yul\":3084:3108   */\n      tag_79\n      jump\t// in\n    tag_90:\n        /* \"#utility.yul\":3077:3082   */\n      dup2\n        /* \"#utility.yul\":3074:3109   */\n      eq\n        /* \"#utility.yul\":3064:3127   */\n      tag_91\n      jumpi\n        /* \"#utility.yul\":3123:3124   */\n      0x00\n        /* \"#utility.yul\":3120:3121   */\n      dup1\n        /* \"#utility.yul\":3113:3125   */\n      revert\n        /* \"#utility.yul\":3064:3127   */\n    tag_91:\n        /* \"#utility.yul\":3011:3133   */\n      pop\n      jump\t// out\n        /* \"#utility.yul\":3139:3261   */\n    tag_45:\n        /* \"#utility.yul\":3212:3236   */\n      tag_93\n        /* \"#utility.yul\":3230:3235   */\n      dup2\n        /* \"#utility.yul\":3212:3236   */\n      tag_58\n      jump\t// in\n    tag_93:\n        /* \"#utility.yul\":3205:3210   */\n      dup2\n        /* \"#utility.yul\":3202:3237   */\n      eq\n        /* \"#utility.yul\":3192:3255   */\n      tag_94\n      jumpi\n        /* \"#utility.yul\":3251:3252   */\n      0x00\n        /* \"#utility.yul\":3248:3249   */\n      dup1\n        /* \"#utility.yul\":3241:3253   */\n      revert\n        /* \"#utility.yul\":3192:3255   */\n    tag_94:\n        /* \"#utility.yul\":3139:3261   */\n      pop\n      jump\t// out\n\n    auxdata: 0xa26469706673582212205484e53c222689814007a2b24984e49261f8afcfdd11f09ed5e48b51196a490664736f6c63430008070033\n}\n",
				"bytecode": {
					"linkReferences": {},
					"object": "608060405234801561001057600080fd5b506104ad806100206000396000f3fe6080604052600436106100345760003560e01c80632e1a7d4d14610039578063b6b55f2514610055578063f8b2cb4f14610071575b600080fd5b610053600480360381019061004e919061029e565b6100ae565b005b61006f600480360381019061006a919061029e565b610189565b005b34801561007d57600080fd5b5061009860048036038101906100939190610271565b61021d565b6040516100a591906102da565b60405180910390f35b670de0b6b3a7640000816100c2919061034b565b6100cb3361021d565b10156100d657600080fd5b80600160003373ffffffffffffffffffffffffffffffffffffffff1673ffffffffffffffffffffffffffffffffffffffff168152602001908152602001600020600082825461012591906103a5565b925050819055503373ffffffffffffffffffffffffffffffffffffffff166108fc670de0b6b3a76400008361015a919061034b565b9081150290604051600060405180830381858888f19350505050158015610185573d6000803e3d6000fd5b5050565b670de0b6b3a76400008161019d919061034b565b6101a63361021d565b10156101b157600080fd5b670de0b6b3a7640000816101c5919061034b565b600160003373ffffffffffffffffffffffffffffffffffffffff1673ffffffffffffffffffffffffffffffffffffffff168152602001908152602001600020600082825461021391906102f5565b9250508190555050565b60008173ffffffffffffffffffffffffffffffffffffffff16316000819055506000549050919050565b60008135905061025681610449565b92915050565b60008135905061026b81610460565b92915050565b60006020828403121561028757610286610444565b5b600061029584828501610247565b91505092915050565b6000602082840312156102b4576102b3610444565b5b60006102c28482850161025c565b91505092915050565b6102d48161040b565b82525050565b60006020820190506102ef60008301846102cb565b92915050565b60006103008261040b565b915061030b8361040b565b9250827fffffffffffffffffffffffffffffffffffffffffffffffffffffffffffffffff038211156103405761033f610415565b5b828201905092915050565b60006103568261040b565b91506103618361040b565b9250817fffffffffffffffffffffffffffffffffffffffffffffffffffffffffffffffff048311821515161561039a57610399610415565b5b828202905092915050565b60006103b08261040b565b91506103bb8361040b565b9250828210156103ce576103cd610415565b5b828203905092915050565b60006103e4826103eb565b9050919050565b600073ffffffffffffffffffffffffffffffffffffffff82169050919050565b6000819050919050565b7f4e487b7100000000000000000000000000000000000000000000000000000000600052601160045260246000fd5b600080fd5b610452816103d9565b811461045d57600080fd5b50565b6104698161040b565b811461047457600080fd5b5056fea26469706673582212205484e53c222689814007a2b24984e49261f8afcfdd11f09ed5e48b51196a490664736f6c63430008070033",
					"opcodes": "PUSH1 0x80 PUSH1 0x40 MSTORE CALLVALUE DUP1 ISZERO PUSH2 0x10 JUMPI PUSH1 0x0 DUP1 REVERT JUMPDEST POP PUSH2 0x4AD DUP1 PUSH2 0x20 PUSH1 0x0 CODECOPY PUSH1 0x0 RETURN INVALID PUSH1 0x80 PUSH1 0x40 MSTORE PUSH1 0x4 CALLDATASIZE LT PUSH2 0x34 JUMPI PUSH1 0x0 CALLDATALOAD PUSH1 0xE0 SHR DUP1 PUSH4 0x2E1A7D4D EQ PUSH2 0x39 JUMPI DUP1 PUSH4 0xB6B55F25 EQ PUSH2 0x55 JUMPI DUP1 PUSH4 0xF8B2CB4F EQ PUSH2 0x71 JUMPI JUMPDEST PUSH1 0x0 DUP1 REVERT JUMPDEST PUSH2 0x53 PUSH1 0x4 DUP1 CALLDATASIZE SUB DUP2 ADD SWAP1 PUSH2 0x4E SWAP2 SWAP1 PUSH2 0x29E JUMP JUMPDEST PUSH2 0xAE JUMP JUMPDEST STOP JUMPDEST PUSH2 0x6F PUSH1 0x4 DUP1 CALLDATASIZE SUB DUP2 ADD SWAP1 PUSH2 0x6A SWAP2 SWAP1 PUSH2 0x29E JUMP JUMPDEST PUSH2 0x189 JUMP JUMPDEST STOP JUMPDEST CALLVALUE DUP1 ISZERO PUSH2 0x7D JUMPI PUSH1 0x0 DUP1 REVERT JUMPDEST POP PUSH2 0x98 PUSH1 0x4 DUP1 CALLDATASIZE SUB DUP2 ADD SWAP1 PUSH2 0x93 SWAP2 SWAP1 PUSH2 0x271 JUMP JUMPDEST PUSH2 0x21D JUMP JUMPDEST PUSH1 0x40 MLOAD PUSH2 0xA5 SWAP2 SWAP1 PUSH2 0x2DA JUMP JUMPDEST PUSH1 0x40 MLOAD DUP1 SWAP2 SUB SWAP1 RETURN JUMPDEST PUSH8 0xDE0B6B3A7640000 DUP2 PUSH2 0xC2 SWAP2 SWAP1 PUSH2 0x34B JUMP JUMPDEST PUSH2 0xCB CALLER PUSH2 0x21D JUMP JUMPDEST LT ISZERO PUSH2 0xD6 JUMPI PUSH1 0x0 DUP1 REVERT JUMPDEST DUP1 PUSH1 0x1 PUSH1 0x0 CALLER PUSH20 0xFFFFFFFFFFFFFFFFFFFFFFFFFFFFFFFFFFFFFFFF AND PUSH20 0xFFFFFFFFFFFFFFFFFFFFFFFFFFFFFFFFFFFFFFFF AND DUP2 MSTORE PUSH1 0x20 ADD SWAP1 DUP2 MSTORE PUSH1 0x20 ADD PUSH1 0x0 KECCAK256 PUSH1 0x0 DUP3 DUP3 SLOAD PUSH2 0x125 SWAP2 SWAP1 PUSH2 0x3A5 JUMP JUMPDEST SWAP3 POP POP DUP2 SWAP1 SSTORE POP CALLER PUSH20 0xFFFFFFFFFFFFFFFFFFFFFFFFFFFFFFFFFFFFFFFF AND PUSH2 0x8FC PUSH8 0xDE0B6B3A7640000 DUP4 PUSH2 0x15A SWAP2 SWAP1 PUSH2 0x34B JUMP JUMPDEST SWAP1 DUP2 ISZERO MUL SWAP1 PUSH1 0x40 MLOAD PUSH1 0x0 PUSH1 0x40 MLOAD DUP1 DUP4 SUB DUP2 DUP6 DUP9 DUP9 CALL SWAP4 POP POP POP POP ISZERO DUP1 ISZERO PUSH2 0x185 JUMPI RETURNDATASIZE PUSH1 0x0 DUP1 RETURNDATACOPY RETURNDATASIZE PUSH1 0x0 REVERT JUMPDEST POP POP JUMP JUMPDEST PUSH8 0xDE0B6B3A7640000 DUP2 PUSH2 0x19D SWAP2 SWAP1 PUSH2 0x34B JUMP JUMPDEST PUSH2 0x1A6 CALLER PUSH2 0x21D JUMP JUMPDEST LT ISZERO PUSH2 0x1B1 JUMPI PUSH1 0x0 DUP1 REVERT JUMPDEST PUSH8 0xDE0B6B3A7640000 DUP2 PUSH2 0x1C5 SWAP2 SWAP1 PUSH2 0x34B JUMP JUMPDEST PUSH1 0x1 PUSH1 0x0 CALLER PUSH20 0xFFFFFFFFFFFFFFFFFFFFFFFFFFFFFFFFFFFFFFFF AND PUSH20 0xFFFFFFFFFFFFFFFFFFFFFFFFFFFFFFFFFFFFFFFF AND DUP2 MSTORE PUSH1 0x20 ADD SWAP1 DUP2 MSTORE PUSH1 0x20 ADD PUSH1 0x0 KECCAK256 PUSH1 0x0 DUP3 DUP3 SLOAD PUSH2 0x213 SWAP2 SWAP1 PUSH2 0x2F5 JUMP JUMPDEST SWAP3 POP POP DUP2 SWAP1 SSTORE POP POP JUMP JUMPDEST PUSH1 0x0 DUP2 PUSH20 0xFFFFFFFFFFFFFFFFFFFFFFFFFFFFFFFFFFFFFFFF AND BALANCE PUSH1 0x0 DUP2 SWAP1 SSTORE POP PUSH1 0x0 SLOAD SWAP1 POP SWAP2 SWAP1 POP JUMP JUMPDEST PUSH1 0x0 DUP2 CALLDATALOAD SWAP1 POP PUSH2 0x256 DUP2 PUSH2 0x449 JUMP JUMPDEST SWAP3 SWAP2 POP POP JUMP JUMPDEST PUSH1 0x0 DUP2 CALLDATALOAD SWAP1 POP PUSH2 0x26B DUP2 PUSH2 0x460 JUMP JUMPDEST SWAP3 SWAP2 POP POP JUMP JUMPDEST PUSH1 0x0 PUSH1 0x20 DUP3 DUP5 SUB SLT ISZERO PUSH2 0x287 JUMPI PUSH2 0x286 PUSH2 0x444 JUMP JUMPDEST JUMPDEST PUSH1 0x0 PUSH2 0x295 DUP5 DUP3 DUP6 ADD PUSH2 0x247 JUMP JUMPDEST SWAP2 POP POP SWAP3 SWAP2 POP POP JUMP JUMPDEST PUSH1 0x0 PUSH1 0x20 DUP3 DUP5 SUB SLT ISZERO PUSH2 0x2B4 JUMPI PUSH2 0x2B3 PUSH2 0x444 JUMP JUMPDEST JUMPDEST PUSH1 0x0 PUSH2 0x2C2 DUP5 DUP3 DUP6 ADD PUSH2 0x25C JUMP JUMPDEST SWAP2 POP POP SWAP3 SWAP2 POP POP JUMP JUMPDEST PUSH2 0x2D4 DUP2 PUSH2 0x40B JUMP JUMPDEST DUP3 MSTORE POP POP JUMP JUMPDEST PUSH1 0x0 PUSH1 0x20 DUP3 ADD SWAP1 POP PUSH2 0x2EF PUSH1 0x0 DUP4 ADD DUP5 PUSH2 0x2CB JUMP JUMPDEST SWAP3 SWAP2 POP POP JUMP JUMPDEST PUSH1 0x0 PUSH2 0x300 DUP3 PUSH2 0x40B JUMP JUMPDEST SWAP2 POP PUSH2 0x30B DUP4 PUSH2 0x40B JUMP JUMPDEST SWAP3 POP DUP3 PUSH32 0xFFFFFFFFFFFFFFFFFFFFFFFFFFFFFFFFFFFFFFFFFFFFFFFFFFFFFFFFFFFFFFFF SUB DUP3 GT ISZERO PUSH2 0x340 JUMPI PUSH2 0x33F PUSH2 0x415 JUMP JUMPDEST JUMPDEST DUP3 DUP3 ADD SWAP1 POP SWAP3 SWAP2 POP POP JUMP JUMPDEST PUSH1 0x0 PUSH2 0x356 DUP3 PUSH2 0x40B JUMP JUMPDEST SWAP2 POP PUSH2 0x361 DUP4 PUSH2 0x40B JUMP JUMPDEST SWAP3 POP DUP2 PUSH32 0xFFFFFFFFFFFFFFFFFFFFFFFFFFFFFFFFFFFFFFFFFFFFFFFFFFFFFFFFFFFFFFFF DIV DUP4 GT DUP3 ISZERO ISZERO AND ISZERO PUSH2 0x39A JUMPI PUSH2 0x399 PUSH2 0x415 JUMP JUMPDEST JUMPDEST DUP3 DUP3 MUL SWAP1 POP SWAP3 SWAP2 POP POP JUMP JUMPDEST PUSH1 0x0 PUSH2 0x3B0 DUP3 PUSH2 0x40B JUMP JUMPDEST SWAP2 POP PUSH2 0x3BB DUP4 PUSH2 0x40B JUMP JUMPDEST SWAP3 POP DUP3 DUP3 LT ISZERO PUSH2 0x3CE JUMPI PUSH2 0x3CD PUSH2 0x415 JUMP JUMPDEST JUMPDEST DUP3 DUP3 SUB SWAP1 POP SWAP3 SWAP2 POP POP JUMP JUMPDEST PUSH1 0x0 PUSH2 0x3E4 DUP3 PUSH2 0x3EB JUMP JUMPDEST SWAP1 POP SWAP2 SWAP1 POP JUMP JUMPDEST PUSH1 0x0 PUSH20 0xFFFFFFFFFFFFFFFFFFFFFFFFFFFFFFFFFFFFFFFF DUP3 AND SWAP1 POP SWAP2 SWAP1 POP JUMP JUMPDEST PUSH1 0x0 DUP2 SWAP1 POP SWAP2 SWAP1 POP JUMP JUMPDEST PUSH32 0x4E487B7100000000000000000000000000000000000000000000000000000000 PUSH1 0x0 MSTORE PUSH1 0x11 PUSH1 0x4 MSTORE PUSH1 0x24 PUSH1 0x0 REVERT JUMPDEST PUSH1 0x0 DUP1 REVERT JUMPDEST PUSH2 0x452 DUP2 PUSH2 0x3D9 JUMP JUMPDEST DUP2 EQ PUSH2 0x45D JUMPI PUSH1 0x0 DUP1 REVERT JUMPDEST POP JUMP JUMPDEST PUSH2 0x469 DUP2 PUSH2 0x40B JUMP JUMPDEST DUP2 EQ PUSH2 0x474 JUMPI PUSH1 0x0 DUP1 REVERT JUMPDEST POP JUMP INVALID LOG2 PUSH5 0x6970667358 0x22 SLT KECCAK256 SLOAD DUP5 0xE5 EXTCODECOPY 0x22 0x26 DUP10 DUP2 BLOCKHASH SMOD LOG2 0xB2 0x49 DUP5 0xE4 SWAP3 PUSH2 0xF8AF 0xCF 0xDD GT CREATE SWAP15 0xD5 0xE4 DUP12 MLOAD NOT PUSH11 0x490664736F6C6343000807 STOP CALLER "
				},
				"gasEstimates": {
					"creation": {
						"codeDepositCost": "239400",
						"executionCost": "281",
						"totalCost": "239681"
					},
					"external": {
						"deposit(uint256)": "infinite",
						"getBalance(address)": "27493",
						"withdraw(uint256)": "infinite"
					}
				},
				"methodIdentifiers": {
					"deposit(uint256)": "b6b55f25",
					"getBalance(address)": "f8b2cb4f",
					"withdraw(uint256)": "2e1a7d4d"
				}
			},
			"userdoc": {
				"kind": "user",
				"methods": {},
				"version": 1
			}
		}
	}
}